:080F9000756E69636F726E005B
:100DD200120964120E267BFF7A0F799090006B74D1
:100DE20010F0E4FD7F02120D6E7BFF7A0F79909076
:100DF200006B7410F07D027F02120D6E7BFF7A0F82
:100E0200799090006B7410F07D047F02120D6E7B5E
:100E1200FF7A0F799090006B7410F07D067F0212BA
:040E22000D6E80B21F
:100EE900D3EF9400EE940040257DC7EDD3940074B0
:100EF90080948040127C01ECD394007480948040EB
:0E0F0900031C80F31D80E4EF1F70D51E80D204
:010F170022B7
:010FAB002223
:070F9800D2A4D2A5C2A522DC
:070F9F00D2A4C2A5D2A522D5
:100F1800C2A4E4FDFCEF30E703D38001C392A5D25D
:100F2800A400C2A4EF25E0FF0DBD00010CED64088C
:030F38004C70E218
:010F3B002293
:050FA600D2A4C2A42248
:100003000000000000000000002F000000000700B7
:10001300070000147F147F1400242A7F2A12006231
:1000230064081323003649552250000005030000DD
:1000330000001C224100000041221C000014083E65
:1000430008140008083E0808000000A0600000082B
:10005300080808080000606000000020100804027F
:10006300003E5149453E0000427F4000004261513D
:100073004946002141454B31001814127F100027D7
:1000830045454539003C4A4949300001710905039A
:1000930000364949493600064949291E00003636CB
:1000A300000000005636000000081422410000142E
:1000B300141414140000412214080002015109060B
:1000C30000324959513E007C1211127C007F49498C
:1000D3004936003E41414122007F4141221C007FBD
:1000E30049494941007F09090901003E4149497ACB
:1000F300007F0808087F0000417F41000020404145
:100103003F01007F08142241007F40404040007FB0
:10011300020C027F007F0408107F003E4141413EF4
:10012300007F09090906003E4151215E007F09193C
:1001330029460046494949310001017F0101003F39
:100143004040403F001F2040201F003F4038403FB9
:10015300006314081463000708700807006151491D
:10016300454300007F41410000552A552A550000B0
:1001730041417F000004020102040040404040402E
:10018300000001020400002054545478007F4844C6
:10019300443800384444442000384444487F0038FD
:1001A3005454541800087E0901020018A4A4A47C26
:1001B300007F080404780000447D400000408084F0
:1001C3007D00007F102844000000417F4000007C38
:1001D30004180478007C0804047800384444443844
:1001E30000FC242424180018242418FC007C080490
:1001F300040800485454542000043F444020003C69
:100203004040207C001C2040201C003C4030403CEF
:10021300004428102844001CA0A0A07C004464547F
:100223004C441414141414140000000000000000C3
:100233000000000000000000000000F800000000C3
:10024300000000333000000000100C06100C060004
:10025300000000000000000040C07840C07840006B
:10026300043F04043F040400007088FC08300000CD
:10027300001820FF211E0000F008F000E018000025
:1002830000211C031E211E0000F0088870000000DE
:100293001E2123241927211010160E000000000030
:1002A3000000000000000000000000E0180402004D
:1002B300000000071820400000020418E0000000BE
:1002C3000040201807000000404080F080404000BC
:1002D3000202010F01020200000000F00000000012
:1002E3000101011F010101000000000000000000E6
:1002F30080B070000000000000000000000000005B
:1003030000010101010101010000000000000000E3
:10031300003030000000000000000000806018047E
:10032300006018060100000000E010080810E0005B
:10033300000F102020100F00001010F80000000024
:100343000020203F2020000000700808088870006B
:1003530000302824222130000030088888483000EB
:100363000018202020110E000000C02010F800000B
:1003730000070424243F240000F8088888080800A4
:100383000019212020110E0000E0108888180000B9
:10039300000F112020110E0000380808C83808008B
:1003A3000000003F0000000000708808088870000B
:1003B300001C222121221C0000E010080810E0008C
:1003C3000000312222110F00000000C0C000000015
:1003D300000000303000000000000080000000003A
:1003E3000000806000000000000080402010080032
:1003F30000010204081020004040404040404000FB
:1004030004040404040404000008102040800000D5
:100413000020100804020100007048080808F000DA
:100423000000003036010000C030C828E810E000AA
:100433000718272423140B000000C038E000000035
:10044300203C23020227382008F88888887000009F
:10045300203F202020110E00C03008080808380073
:10046300071820202010080008F808080810E000EA
:10047300203F202020100F0008F88888E80810008B
:10048300203F20202320180008F88888E80810005F
:10049300203F200003000000C03008080838000097
:1004A30007182020221E020008F808000008F80898
:1004B300203F210101213F20000808F8080800001F
:1004C3000020203F2020000000000808F808080052
:1004D300C08080807F00000008F888C028180800CA
:1004E300203F20012638200008F808000000000003
:1004F300203F20202020300008F8F800F8F80800FA
:10050300203F003F003F200008F830C00008F808F3
:10051300203F200007183F00E01008080810E00003
:100523000F10202020100F0008F808080808F0001A
:10053300203F210101010000E01008080810E0003D
:100543000F18242438504F0008F8888888887000D2
:10055300203F2000030C3020007088080808380072
:100563000038202121221C00180808F80808180068
:100573000000203F2000000008F808000008F808E9
:10058300001F202020201F000878880000C838089A
:10059300000007380E010000F80800F80008F80012
:1005A300033C0700073C03000818688080681808AC
:1005B30020302C03032C30200838C800C83808002A
:1005C3000000203F2000000010080808C838080079
:1005D3002038262120201800000000FE020202001D
:1005E3000000007F40404000000C30C000000000CD
:1005F300000000010638C00000020202FE000000F5
:10060300004040407F00000000000402020204009A
:1006130000000000000000000000000000000000D7
:1006230080808080808080800002020400000000BF
:1006330000000000000000000000808080800000B7
:100643000019242222223F2008F8008080000000A5
:10065300003F112020110E00000000808080000068
:10066300000E112020201100000000808088F80077
:10067300000E112020103F200000808080800000A9
:10068300001F222222221300008080F0888888180D
:100693000020203F20200000000080808080800018
:1006A300006B94949493600008F8008080800000AD
:1006B300203F210000203F20008098980000000088
:1006C3000020203F202000000000008098980000B8
:1006D30000C08080807F000008F8000080808000D8
:1006E300203F24022D302000000808F800000000FD
:1006F3000020203F202000008080808080808000B8
:10070300203F20003F20003F808000808080000049
:10071300203F210000203F200000808080800000D7
:10072300001F202020201F00808000808000000008
:1007330080FFA12020110E00000000808080800037
:10074300000E112020A0FF80808080008080800028
:1007530020203F2120000100000080808080800055
:100763000033242424241900008080E080800000CA
:100773000000001F20200000808000000080800017
:10078300001F202020103F20808080000080808078
:1007930000010E3008060100808000800080808008
:1007A3000F300C030C300F0000808000808080002D
:1007B3000020312E0E312000808080000080808058
:1007C30080818E7018060100008080808080800008
:1007D3000021302C2221300000000000807C020226
:1007E30000000000003F404000000000FF00000048
:1007F30000000000FF0000000002027C80000000F7
:100803000040403F00000000000601010202040412
:10081300000000000000000040221408F40200F869
:100823000808FF0808F80000084482413F002063DD
:1008330021213F21293360002010E824272424E4C8
:1008430024342C20E000000080601F090909097F7F
:10085300090949897F00000000007C545556547CE7
:10086300545655547C000000010101FD45454545A2
:08087300454545FD01010100AE
:100E7900F583E5822FF582E43583F583E493FF7DDD
:010E89004028
:100E8A00900074EFF0A3EDF0120F987F78120F180C
:100E9A00120FA6900075E0FF120F18120FA690000D
:0C0EAA0074E0FF120F18120FA6020F9F39
:100E2600E4900066F0900066E0FFC3940874809436
:100E360080503FEF24B0FFE4FD120E8AE4FDFF125E
:100E46000E8AE4FD7F10120E8AE4900067F090008F
:100E560067E0C3948074809480500F7D40E4FF1255
:100E66000E8A900067E004F080E4900066E004F0EB
:020E760080B347
:010E78002257
:080EB60090006DE0FFA3E0FDD8
:100EBE00900073EFF0ED24B0FFE4FD120E8A900067
:100ECE0073E054F0C4540F4410FFE4FD120E8A90E8
:0B0EDE000073E0540FFFE4FD020E8AD9
:0B087B0090006EEDF090006DEFF0FDBE
:10088600E4900071F0A3F0EB24E0900071F0EDD35A
:10089600947F74809480400AE490006DF0A3E02475
:1008A60002F0900070E064106003020932120EB686
:1008B600E4900072F0900072E0FFC3940874809494
:1008C600805025900071E075F010A42FF582E43574
:1008D600F0F583E582242BF582E5833402120E833C
:1008E600900072E004F080CD90006DE0FFA3E0047C
:1008F600FD120EBEE4900072F0900072E0FFC39409
:1009060008748094805056900071E075F010A42F02
:10091600F582E435F0F583E5822433F582E5833408
:1009260002120E83900072E004F080CD120EB6E43F
:10093600900072F0900072E0FFC394067480948079
:10094600501B900071E075F006A42403F582E5F0D3
:0D0956003400120E79900072E004F080D79A
:010963002271
:100964007F647E00120EE9E4FD7FAE120E8AE4FD80
:100974007F20120E8AE4FD7F10120E8AE4FD7FB000
:10098400120E8AE4FD7FC1120E8AE4FDFF120E8A64
:10099400E4FD7F10120E8AE4FD7F40120E8AE4FD0E
:1009A4007F81120E8AE4FD7FFF120E8AE4FD7FA18F
:1009B400120E8AE4FD7FC8120E8AE4FD7FA6120E91
:1009C4008AE4FD7FA8120E8AE4FD7F3F120E8AE4BA
:1009D400FD7FA4120E8AE4FD7FD3120E8AE4FDFF8C
:1009E400120E8AE4FD7FD5120E8AE4FD7FF0120E0A
:1009F4008AE4FD7FD9120E8AE4FD7F22120E8AE476
:100A0400FD7FDA120E8AE4FD7F12120E8AE4FD7F66
:100A1400DB120E8AE4FD7F20120E8AE4FD7F8D1224
:100A24000E8AE4FD7F14120E8AE4FD7FAF020E8A63
:100F5A00E4FD7F8D120E8AE4FD7F14120E8AE4FDF1
:050F6A007FAF020E8ABA
:100F6F00E4FD7F8D120E8AE4FD7F10120E8AE4FDE0
:050F7F007FAE020E8AA6
:070F3C0090008FEFF0A90502
:100F43007F017E00AD0119ED600C90008FE0FD7C08
:060F530000120BD780EE36
:010F59002275
:0E0A3400900081EFF0A3EDF0A3EAF0A3EBF049
:100A4200E4900089F0900087F0900085E0FF90002C
:100A520087E0FEC39F4003020AEEC3EF9E14FD7FB0
:100A62000A120F3C900083E0FCA3E0FDCFCDCFCE75
:100A7200CCCE120BE97C007D0A120BE9900088EDC6
:100A8200F0A3E07036900085E014FF900087E0FE4E
:100A9200C39F5027A3E0701D900086E0FCC3138E15
:100AA200F0A4FF900081E02FFFA3E0FD900070EC26
:100AB200F07B20802B9000897401F0900086E0FE8C
:100AC200C313FFA3E0FDEF8DF0A4FF900081E02FA0
:100AD200FFA3E0FD900088E02430FB900070EEF070
:0C0AE20012087B900087E004F0020A4B31
:010AEE0022E5
:100D6E00900066EFF0A3EDF0A3EBF0A3EAF0A3E999
:010D7E00F084
:100D7F00E490006CF0900068E0FBA3E0FAA3E0F9C8
:100D8F0090006CE0F582758300120BAAFB60339024
:100D9F000066E0FFA3E0FD90006BE0900070F012A2
:100DAF00087B900066E02408F0E0D3947874809478
:100DBF00804007E4F0A3E02402F090006CE004F020
:020DCF0080B3EF
:010DD10022FF
:0D0CE60090008CEBF090008AEFF0A3EDF091
:100CF300E490008EF0120EBEE490008DF090008D13
:100D0300E0FFC3941074809480502090008CE0C462
:100D13003354E0241BF582E43408120E7990008EDC
:100D2300E004F090008DE004F080D290008AE0FFB0
:100D3300A3E004FD120EBEE490008DF090008DE060
:100D4300FFC3941074809480502090008CE0C433CF
:100D530054E0242BF582E43408120E7990008EE0DF
:0A0D630004F090008DE004F080D24F
:010D6D002263
:0A0C5400900076EFF0900078EBF0CE
:100C5E00E490007DF0A3F0900079E0FF5407700857
:100C6E00EF131313541F800A900079E013131354DB
:100C7E001F04900080F0900080EDF0900079E0FF6E
:100C8E00900080E0FDC39F504E900076E0FF120E64
:100C9E00BE900076E090007FF0900078E0FF90002C
:100CAE007FE0C39F502990007AE0FBA3E0FAA3E017
:100CBE00F9A3E475F001120C3E85F082F583120B58
:100CCE00AAFF7D40120E8A90007FE004F080CA9049
:070CDE000080E004F080A497
:010CE50022EC
:100AEF00E4FD7FAE120E8AE4FDFF120E8AE4FD7F55
:100AFF0010120E8AE4FD7F40120E8AE4FD7FB012C1
:100B0F000E8AE4FD7F81120E8AE4FD7FFF120E8AAA
:100B1F00E4FD7FA1120E8AE4FD7FA6120E8AE4FD8A
:100B2F007FA8120E8AE4FD7F3F120E8AE4FD7FC874
:100B3F00120E8AE4FD7FD3120E8AE4FDFF120E8A95
:100B4F00E4FD7FD5120E8AE4FD7F80120E8AE4FD4C
:100B5F007FD8120E8AE4FD7F05120E8AE4FD7FD93D
:100B6F00120E8AE4FD7FF1120E8AE4FD7FDA120E77
:100B7F008AE4FD7F12120E8AE4FD7FDB120E8AE4F7
:100B8F00FD7F40120E8AE4FD7F8D120E8AE4FD7FF9
:0B0B9F0014120E8AE4FD7FAF020E8AE4
:03000000020F8468
:0C0F8400787FE4F6D8FD758107020DD2DD
:100BAA00BB010CE58229F582E5833AF583E0225000
:100BBA0006E92582F8E622BBFE06E92582F8E2224A
:0D0BCA00E58229F582E5833AF583E4932264
:100BD700EF8DF0A4A8F0CF8CF0A428CE8DF0A42E32
:020BE700FE22EC
:100BE900BC000BBE0029EF8DF084FFADF022E4CCF0
:100BF900F875F008EF2FFFEE33FEEC33FCEE9DECB9
:100C0900984005FCEE9DFE0FD5F0E9E4CEFD22EDFE
:100C1900F8F5F0EE8420D21CFEADF075F008EF2F48
:100C2900FFED33FD4007985006D5F0F222C398FD39
:050C39000FD5F0EA22D6
:100C3E00A3F8E0C5F025F0F0E58215827002158369
:060C4E00E0C838F0E822C6
:00000001FF
