:031B800020200022
:041B710041006C00C3
:1011580012155478787C007D017E007F07120E3AC4
:1011680090007BE0FB3395E0FA9000897402F0A3CD
:101178007410F0E4FDFF1213DE9000917410F07B00
:101188003AE4FD7F1012106F90007CE0FB3395E08D
:10119800FA9000897402F0A37410F0E4FD7F18122D
:1011A80013DE9000917410F07B3AE4FD7F28121052
:1011B8006F90007DE0FB3395E0FA9000897402F0AF
:1011C800A37410F0E4FD7F301213DE900078E0FB8A
:1011D8003395E0FA9000897402F0A37410F07D0250
:1011E800E4FF1213DE9000917410F07B2D7D02FF56
:1011F80012106F900079E0FB3395E0FA9000897443
:1012080002F0A37410F07D027F181213DE90009193
:101218007410F07B2D7D027F2812106F90007AE009
:10122800FB3395E0FA9000897402F0A37410F07D06
:06123800027F300213DE0C
:10088600900071E0900084F09000917410F07B3A33
:10089600E4FD7F1012106F9000917410F07B3AE423
:1008A600FD7F2812106F9000917410F07B2D7D0251
:1008B600FF12106F9000917410F07B2D7D027F283F
:1008C60012106F900080E0FF7E006402700E9000B0
:1008D6006BE004F0E075F00684E5F0F0EF64034E9B
:1008E6006003020A45900068E0FBA3E0FAA3E0F982
:1008F600A3E0F5827583007401120EAF90006EE0DE
:10090600FF3395E0FED3EF9463EE6480948040025B
:10091600E4F090006FE0FF3395E0FED3EF940CEE29
:100926006480948040037401F090006FE0FF33957B
:10093600E0FEEF64014E6024EF64034E601EEF6438
:10094600054E6018EF64074E6012EF64084E600CA7
:10095600EF640A4E6006EF640C4E701A900070E069
:10096600FF3395E0FED3EF941FEE6480948050032E
:10097600020A03020A0090006FE0FF3395E0FEEFE3
:1009860064044E6012EF64064E600CEF64094E601C
:1009960006EF640B4E7016900070E0FF3395E0FE94
:1009A600D3EF941EEE648094804052804D90006F89
:1009B600E0FF3395E0FEEF64024E704190006EE07A
:1009C600FF75F004120E60AFF0EF3395E04F70162E
:1009D600900070E0FF3395E0FED3EF941DEE648047
:1009E600948040198014900070E0FF3395E0FED3A8
:1009F600EF941CEE6480948040037401F0900071C3
:100A0600E0FF3395E0FED3EF9417EE6480948040C8
:100A160002E4F0900072E0FF3395E0FED3EF943BE2
:100A2600EE648094804002E4F0900073E0FF33951A
:100A3600E0FED3EF943BEE648094804002E4F090B5
:100A46000080E064046003020BC2900068E0FBA330
:100A5600E0FAA3E0F9A3E0F58275830074FF120EB5
:100A6600AF90006EE03395E0C364809480500374C9
:100A760063F090006FE0FF3395E0FEC3EF9401EE64
:100A8600648094805003740CF090006FE0FF3395FF
:100A9600E0FEEF64014E6024EF64034E601EEF64D7
:100AA600054E6018EF64074E6012EF64084E600C46
:100AB600EF640A4E6006EF640C4E7031900070E0F1
:100AC600FF3395E0FEC3EF9401EE648094805003FB
:100AD600741FF0900070E0FF3395E0FED3EF941F93
:100AE600EE648094805003020BC2020BBF90006F2D
:100AF600E0FF3395E0FEEF64044E6012EF64064EAD
:100B0600600CEF64094E6006EF640B4E7030900087
:100B160070E0FF3395E0FEC3EF9401EE64809480AD
:100B26005003741EF0900070E0FF3395E0FED3EFA3
:100B3600941EEE648094805003020BC2807B90006A
:100B46006FE0FF3395E0FEEF64024E706F90006E2B
:100B5600E0FF75F004120E60AFF0EF3395E04F70D2
:100B66002D900070E0FF3395E0FEC3EF9401EE6434
:100B76008094805003741DF0900070E0FF3395E080
:100B8600FED3EF941DEE648094804030802B90005D
:100B960070E0FF3395E0FEC3EF9401EE648094802D
:100BA6005003741CF0900070E0FF3395E0FED3EF25
:100BB600941CEE6480948040037401F0900071E010
:100BC6003395E0C36480948050037417F0900072EC
:100BD600E03395E0C3648094805003743BF090004A
:100BE60073E03395E0C3648094805003743BF090C7
:100BF600006BE0701D90006DE0640170157BFF7A5C
:100C06001B798090008A7410F07D02E4FF1218E0D0
:100C1600801A90006EE0FB3395E0FA90008974022A
:100C2600F0A37410F07D02E4FF1213DE90006BE077
:100C36006401701D90006DE0640170157BFF7A1BE6
:100C4600798090008A7410F07D027F181218E08077
:100C56001A90006FE0FB3395E0FA9000897402F079
:100C6600A37410F07D027F181213DE90006BE0640F
:100C760002701D90006DE0640170157BFF7A1B7990
:100C86008090008A7410F07D027F301218E0801A7E
:100C9600900070E0FB3395E0FA9000897402F0A3AF
:100CA6007410F07D027F301213DE90006BE0640357
:100CB600701C90006DE0640170147BFF7A1B7980D4
:100CC60090008A7410F0E4FDFF1218E0801990007D
:100CD60071E0FB3395E0FA9000897402F0A374107A
:100CE600F0E4FDFF1213DE90006BE06404701D90CB
:100CF600006DE0640170157BFF7A1B798090008A95
:100D06007410F0E4FD7F181218E0801A900072E06B
:100D1600FB3395E0FA9000897402F0A37410F0E4B6
:100D2600FD7F181213DE90006BE06405701B9000C7
:100D36006DE0640170137BFF7A1B798090008A74E2
:100D460010F0E4FD7F300218E0900073E0FB33956D
:100D5600E0FA9000897402F0A37410F0E4FD7F308D
:030D66001213DE87
:010D69002267
:10123E001214991219A5121B76121B291215547825
:10124E00787C007D017E007F07120E3A9000687454
:10125E0001F0A37400F0A3746EF09000757401F0A9
:10126E00A37400F0A37478F0E490007FF090007FF8
:10127E00E0C39407748094805035900075E0FBA312
:10128E00E0FAA3E0F990007FE0FFF582758300128B
:10129E000E82FE900068E0FBA3E0FAA3E0F98F82D5
:1012AE00758300EE120EE290007FE004F080BE1215
:1012BE00179B900080EFF06401703190006CE0FF9E
:1012CE007E00700904F0E490006BF0801FEF640163
:1012DE004E701990006CF078847C007D017B017A51
:1012EE0000796EFE7F07120E3A120F8190006CE0AD
:1012FE001460080470B912115880B412088680AFB9
:101B29005389F0438901758A18758CFCC28DD28C52
:071B3900D2A9D2AFC2B9220C
:03000B000219F8DF
:0D19F800C0E0C083C082C0D075D000C00721
:101A0500758A18758CFC900067E004F070069000EC
:101A150066E004F0C3900067E094C8900066E09427
:101A2500004015E4F0A3F090006DE070047F0180A4
:081A3500027F0090006DEFF04C
:0B1A3D00D007D0D0D082D083D0E032A0
:051B7600C2A7C2A1227C
:0718770090008BEFF0A905C2
:10187E00E4FBFAD2A7AF037E007401A80708800527
:10188E00C333CE33CED8F9FF90008BE0FDEF5D244D
:10189E00FF92A2D2A1C2A10BBB00010AEB64084ABF
:1018AE0070D3E4FAFBAF037E007401A8070880052D
:1018BE00C333CE33CED8F9FFE9FDEF5D24FF92A2FC
:1018CE00D2A1C2A10BBB00010AEB64084A70D6C2BA
:0118DE00A762
:0118DF0022E6
:02194400AD07ED
:10194600E4FBF9D2A7ED4401FDEBC394087480943F
:101956008050227E007401A803088005C333CE336D
:10196600CED8F9FFEDF582EF558224FF92A2C2A1EF
:10197600D2A10B80D4E4FBEBC3940874809480500E
:1019860017D2A1C2A130A20DA8037401088002C318
:0E19960033D8FC49F90B80DFC2A7C2A2AF0113
:0119A4002220
:100F8100E4FD7F8E121877900084E0FF75F00A125D
:100F91000E60C454F0FEEF75F00A120E60AFF0EE71
:100FA1002FFD7F8C121877900085E0FF75F00A12F3
:100FB1000E60C454F0FEEF75F00A120E60AFF0EE51
:100FC1002FFD7F88121877900086E0FF75F00A12D6
:100FD1000E60C454F0FEEF75F00A120E60AFF0EE31
:100FE1002FFD7F86121877900087E0FF75F00A12B7
:100FF1000E60C454F0FEEF75F00A120E60AFF0EE11
:101001002FFD7F84121877900088E0FF75F00A1297
:101011000E60C454F0FEEF75F00A120E60AFF0EEF0
:101021002FFD7F82121877900089E0FF75F00A1278
:101031000E60C454F0FEEF75F00A120E60AFF0EED0
:101041002FFD7F8012187790008AE0FF75F00A1259
:101051000E60C454F0FEEF75F00A120E60AFF0EEB0
:0E1061002FFD7F8A1218777D807F8E02187710
:101554007F8D121944EFC4540F75F00AA4FEEF54A2
:101564000F2E900084F07F89121944EFC4540F7534
:10157400F00AA4FEEF540F2E900085F07F87121915
:1015840044EFC4540F75F00AA4FEEF540F2E9000DC
:1015940086F07F85121944EFC4540F75F00AA4FE37
:1015A400EF540F2E900087F07F83121944EFC45438
:1015B4000F75F00AA4FEEF540F2E900088F07F817F
:1015C400121944EFC4540F75F00AA4FEEF540F2E01
:1015D400900089F07F8B121944EFC4540F75F00A00
:1015E400A4FEEF540F2E90008AF07B017A007984D8
:0115F40022D4
:10180D00EF24FE60201460331460462403705820CA
:10181D00B2107F147E00121AB820B2037F01227F0E
:10182D0000227F002220B3107F147E00121AB820F0
:10183D00B3037F01227F00227F002220EB107F1453
:10184D007E00121AB820EB037F01227F00227F0059
:10185D002220EA107F147E00121AB820EA037F01BD
:0A186D00227F00227F00227F00226C
:10179B00E4900084F020B2167F14FE121AB830B217
:1017AB00FD7F147E00121AB89000847401F020B3F0
:1017BB00177F147E00121AB830B3FD7F147E00120F
:1017CB001AB89000847402F020EB177F147E00127D
:1017DB001AB830EBFD7F147E00121AB89000847497
:1017EB0003F020EA177F147E00121AB830EAFD7F4F
:1017FB00147E00121AB89000847404F0900084E0F8
:01180B00FFDD
:01180C0022B9
:101AB800D3EF9400EE940040257DC7EDD3940074D5
:101AC80080948040127C01ECD39400748094804010
:0E1AD800031C80F31D80E4EF1F70D51E80D22A
:011AE60022DD
:01000A0022D3
:10000E000000000000000000002F000000000700AC
:10001E00070000147F147F1400242A7F2A12006226
:10002E0064081323003649552250000005030000D2
:10003E0000001C224100000041221C000014083E5A
:10004E0008140008083E0808000000A06000000820
:10005E000808080800006060000000201008040274
:10006E00003E5149453E0000427F40000042615132
:10007E004946002141454B31001814127F100027CC
:10008E0045454539003C4A4949300001710905038F
:10009E0000364949493600064949291E00003636C0
:1000AE000000000056360000000814224100001423
:1000BE001414141400004122140800020151090600
:1000CE0000324959513E007C1211127C007F494981
:1000DE004936003E41414122007F4141221C007FB2
:1000EE0049494941007F09090901003E4149497AC0
:1000FE00007F0808087F0000417F4100002040413A
:10010E003F01007F08142241007F40404040007FA5
:10011E00020C027F007F0408107F003E4141413EE9
:10012E00007F09090906003E4151215E007F091931
:10013E0029460046494949310001017F0101003F2E
:10014E004040403F001F2040201F003F4038403FAE
:10015E000063140814630007087008070061514912
:10016E00454300007F41410000552A552A550000A5
:10017E0041417F0000040201020400404040404023
:10018E00000001020400002054545478007F4844BB
:10019E00443800384444442000384444487F0038F2
:1001AE005454541800087E0901020018A4A4A47C1B
:1001BE00007F080404780000447D400000408084E5
:1001CE007D00007F102844000000417F4000007C2D
:1001DE0004180478007C0804047800384444443839
:1001EE0000FC242424180018242418FC007C080485
:1001FE00040800485454542000043F444020003C5E
:10020E004040207C001C2040201C003C4030403CE4
:10021E00004428102844001CA0A0A07C0044645474
:10022E004C441414141414140000000000000000B8
:10023E000000000000000000000000F800000000B8
:10024E00000000333000000000100C06100C0600F9
:10025E00000000000000000040C07840C078400060
:10026E00043F04043F040400007088FC08300000C2
:10027E00001820FF211E0000F008F000E01800001A
:10028E0000211C031E211E0000F0088870000000D3
:10029E001E2123241927211010160E000000000025
:1002AE000000000000000000000000E01804020042
:1002BE00000000071820400000020418E0000000B3
:1002CE000040201807000000404080F080404000B1
:1002DE000202010F01020200000000F00000000007
:1002EE000101011F010101000000000000000000DB
:1002FE0080B0700000000000000000000000000050
:10030E0000010101010101010000000000000000D8
:10031E000030300000000000000000008060180473
:10032E00006018060100000000E010080810E00050
:10033E00000F102020100F00001010F80000000019
:10034E000020203F20200000007008080888700060
:10035E0000302824222130000030088888483000E0
:10036E000018202020110E000000C02010F8000000
:10037E0000070424243F240000F808888808080099
:10038E000019212020110E0000E0108888180000AE
:10039E00000F112020110E0000380808C838080080
:1003AE000000003F00000000007088080888700000
:1003BE00001C222121221C0000E010080810E00081
:1003CE000000312222110F00000000C0C00000000A
:1003DE00000000303000000000000080000000002F
:1003EE000000806000000000000080402010080027
:1003FE0000010204081020004040404040404000F0
:10040E0004040404040404000008102040800000CA
:10041E000020100804020100007048080808F000CF
:10042E000000003036010000C030C828E810E0009F
:10043E000718272423140B000000C038E00000002A
:10044E00203C23020227382008F888888870000094
:10045E00203F202020110E00C03008080808380068
:10046E00071820202010080008F808080810E000DF
:10047E00203F202020100F0008F88888E808100080
:10048E00203F20202320180008F88888E808100054
:10049E00203F200003000000C0300808083800008C
:1004AE0007182020221E020008F808000008F8088D
:1004BE00203F210101213F20000808F80808000014
:1004CE000020203F2020000000000808F808080047
:1004DE00C08080807F00000008F888C028180800BF
:1004EE00203F20012638200008F8080000000000F8
:1004FE00203F20202020300008F8F800F8F80800EF
:10050E00203F003F003F200008F830C00008F808E8
:10051E00203F200007183F00E01008080810E000F8
:10052E000F10202020100F0008F808080808F0000F
:10053E00203F210101010000E01008080810E00032
:10054E000F18242438504F0008F8888888887000C7
:10055E00203F2000030C3020007088080808380067
:10056E000038202121221C00180808F8080818005D
:10057E000000203F2000000008F808000008F808DE
:10058E00001F202020201F000878880000C838088F
:10059E00000007380E010000F80800F80008F80007
:1005AE00033C0700073C03000818688080681808A1
:1005BE0020302C03032C30200838C800C83808001F
:1005CE000000203F2000000010080808C83808006E
:1005DE002038262120201800000000FE0202020012
:1005EE000000007F40404000000C30C000000000C2
:1005FE00000000010638C00000020202FE000000EA
:10060E00004040407F00000000000402020204008F
:10061E0000000000000000000000000000000000CC
:10062E0080808080808080800002020400000000B4
:10063E0000000000000000000000808080800000AC
:10064E000019242222223F2008F80080800000009A
:10065E00003F112020110E0000000080808000005D
:10066E00000E112020201100000000808088F8006C
:10067E00000E112020103F2000008080808000009E
:10068E00001F222222221300008080F08888881802
:10069E000020203F2020000000008080808080000D
:1006AE00006B94949493600008F8008080800000A2
:1006BE00203F210000203F2000809898000000007D
:1006CE000020203F202000000000008098980000AD
:1006DE0000C08080807F000008F8000080808000CD
:1006EE00203F24022D302000000808F800000000F2
:1006FE000020203F202000008080808080808000AD
:10070E00203F20003F20003F80800080808000003E
:10071E00203F210000203F200000808080800000CC
:10072E00001F202020201F008080008080000000FD
:10073E0080FFA12020110E0000000080808080002C
:10074E00000E112020A0FF8080808000808080001D
:10075E0020203F212000010000008080808080004A
:10076E000033242424241900008080E080800000BF
:10077E000000001F2020000080800000008080000C
:10078E00001F202020103F2080808000008080806D
:10079E0000010E30080601008080008000808080FD
:1007AE000F300C030C300F00008080008080800022
:1007BE000020312E0E31200080808000008080804D
:1007CE0080818E70180601000080808080808000FD
:1007DE000021302C2221300000000000807C02021B
:1007EE0000000000003F404000000000FF0000003D
:1007FE0000000000FF0000000002027C80000000EC
:10080E000040403F00000000000601010202040407
:10081E00000000000000000040221408F40200F85E
:10082E000808FF0808F80000084482413F002063D2
:10083E0021213F21293360002010E824272424E4BD
:10084E0024342C20E000000080601F090909097F74
:10085E00090949897F00000000007C545556547CDC
:10086E00545655547C000000010101FD4545454597
:08087E00454545FD01010100A3
:101A4800F583E5822FF582E43583F583E493FF7D02
:011A5800404D
:101A5900900095EFF0A3EDF01200037F78121AE7DA
:101A6900121B7B900096E0FF121AE7121B7B900075
:0C1A790095E0FF121AE7121B7B021B6AAB
:1019A500E4900084F0900084E0FFC3940874809470
:1019B50080503FEF24B0FFE4FD121A59E4FDFF12F9
:1019C5001A59E4FD7F10121A59E4900085F0900031
:1019D50085E0C3948074809480500F7D40E4FF12AD
:1019E5001A59900085E004F080E4900084E004F04A
:0219F50080B3BD
:0119F70022CD
:081A850090008EE0FFA3E0FDDC
:101A8D00900094EFF0ED24B0FFE4FD121A59900090
:101A9D0094E054F0C4540F4410FFE4FD121A599011
:0B1AAD000094E0540FFFE4FD021A5902
:0B106F0090008FEDF090008EEFF0FD80
:10107A00E4900092F0A3F0EB24E0900092F0EDD31C
:10108A00947F74809480400AE490008EF0A3E02458
:10109A0002F0900091E064106003021126121A8592
:1010AA00E4900093F0900093E0FFC3940874809456
:1010BA00805025900092E075F010A42FF582E43557
:1010CA00F0F583E5822436F582E5833402121A525A
:1010DA00900093E004F080CD90008EE0FFA3E0043E
:1010EA00FD121A8DE4900093F0900093E0FFC394F0
:1010FA0008748094805056900092E075F010A42FE6
:10110A00F582E435F0F583E582243EF582E5833401
:10111A0002121A52900093E004F080CD121A85E46C
:10112A00900093F0900093E0FFC39406748094803B
:10113A00501B900092E075F006A4240EF582E5F0AB
:0D114A003400121A48900093E004F080D7A2
:011157002275
:10130E007F647E00121AB8E4FD7FAE121A59E4FD16
:10131E007F20121A59E4FD7F10121A59E4FD7FB096
:10132E00121A59E4FD7FC1121A59E4FDFF121A591F
:10133E00E4FD7F10121A59E4FD7F40121A59E4FDA4
:10134E007F81121A59E4FD7FFF121A59E4FD7FA125
:10135E00121A59E4FD7FC8121A59E4FD7FA6121A1B
:10136E0059E4FD7FA8121A59E4FD7F3F121A59E481
:10137E00FD7FA4121A59E4FD7FD3121A59E4FDFF22
:10138E00121A59E4FD7FD5121A59E4FD7FF0121A94
:10139E0059E4FD7FD9121A59E4FD7F22121A59E43D
:1013AE00FD7FDA121A59E4FD7F12121A59E4FD7FFD
:1013BE00DB121A59E4FD7F20121A59E4FD7F8D12BB
:1013CE001A59E4FD7F14121A59E4FD7FAF021A591F
:101B4000E4FD7F8D121A59E4FD7F14121A59E4FD49
:051B50007FAF021A59ED
:101B5500E4FD7F8D121A59E4FD7F10121A59E4FD38
:051B65007FAE021A59D9
:071B0B0090008EEFF0A90528
:101B12007F017E00AD0119ED600C90008EE0FD7C2E
:061B220000120F0480EE2A
:011B2800229A
:0E13DE00900085EFF0A3EDF0A3EAF0A3EBF092
:1013EC00E490008DF090008BF0900089E0FF90006D
:1013FC008BE0FEC39F4003021498C3EF9E14FD7F45
:10140C000A121B0B900087E0FCA3E0FDCFCDCFCEE2
:10141C00CCCE120F167C007D0A120F1690008CEDAC
:10142C00F0A3E07036900089E014FF90008BE0FE92
:10143C00C39F5027A3E0701D90008AE0FCC3138E5D
:10144C00F0A4FF900085E02FFFA3E0FD900091EC4D
:10145C00F07B30802B90008D7401F090008AE0FEC0
:10146C00C313FFA3E0FDEF8DF0A4FF900085E02FE8
:10147C00FFA3E0FD90008CE02430FB900091EEF097
:0C148C0012106F90008BE004F00213F5CA
:011498002231
:1018E000900085EFF0A3EDF0A3EBF0A3EAF0A3E9FD
:0118F000F007
:1018F100E490008BF0900087E0FBA3E0FAA3E0F90D
:1019010090008BE0F582758300120E82FB603390AC
:101911000085E0FFA3E0FD90008AE0900091F012C5
:10192100106F900085E02408F0E0D39478748094DF
:10193100804007E4F0A3E02402F090008BE004F083
:0219410080B371
:011943002281
:0D1713009000A4EBF09000A2EFF0A3EDF029
:10172000E49000A6F0121A8DE49000A5F09000A5B8
:10173000E0FFC394107480948050209000A4E0C413
:101740003354E02426F582E43408121A489000A6A7
:10175000E004F09000A5E004F080D29000A2E0FF49
:10176000A3E004FD121A8DE49000A5F09000A5E01E
:10177000FFC394107480948050209000A4E0C43380
:1017800054E02436F582E43408121A489000A6E0AA
:0A17900004F09000A5E004F080D200
:01179A00222C
:0A15F500900097EFF0900099EBF0E2
:1015FF00E490009EF0A3F090009AE0FF540770086B
:10160F00EF131313541F800A90009AE0131313540F
:10161F001F049000A1F09000A1EDF090009AE0FF60
:10162F009000A1E0FDC39F504E900097E0FF121A6B
:10163F008D900097E09000A0F0900099E0FF90004F
:10164F00A0E0C39F502990009BE0FBA3E0FAA3E02A
:10165F00F9A3E475F001120F6B85F082F583120E7A
:10166F0082FF7D40121A599000A0E004F080CA90CA
:07167F0000A1E004F080A4CB
:011686002241
:10149900E4FD7FAE121A59E4FDFF121A59E4FD7FEB
:1014A90010121A59E4FD7F40121A59E4FD7FB01257
:1014B9001A59E4FD7F81121A59E4FD7FFF121A5966
:1014C900E4FD7FA1121A59E4FD7FA6121A59E4FD21
:1014D9007FA8121A59E4FD7F3F121A59E4FD7FC80B
:1014E900121A59E4FD7FD3121A59E4FDFF121A5951
:1014F900E4FD7FD5121A59E4FD7F80121A59E4FDE3
:101509007FD8121A59E4FD7F05121A59E4FD7FD9D3
:10151900121A59E4FD7FF1121A59E4FD7FDA121A01
:1015290059E4FD7F12121A59E4FD7FDB121A59E4BE
:10153900FD7F40121A59E4FD7F8D121A59E4FD7F8F
:0B15490014121A59E4FD7FAF021A597A
:07000300D2A4D2A5C2A52280
:071B6A00D2A4C2A5D2A522FE
:101AE700C2A4E4FDFCEF30E703D38001C392A5D283
:101AF700A400C2A4EF25E0FF0DBD00010CED6408B2
:031B07004C70E23D
:011B0A0022B8
:051B7B00D2A4C2A42267
:030000000216875E
:0C168700787FE4F6D8FD7581070216CECE
:100D6A00E709F608DFFA8046E709F208DFFA803E6B
:100D7A0088828C83E709F0A3DFFA8032E309F60858
:100D8A00DFFA8078E309F208DFFA807088828C83C0
:100D9A00E309F0A3DFFA806489828A83E0A3F60874
:100DAA00DFFA805889828A83E0A3F208DFFA804C4E
:100DBA0080D280FA80C680D4806980F28033801025
:100DCA0080A680EA809A80A880DA80E280CA80338E
:100DDA0089828A83ECFAE493A3C8C582C8CCC58306
:100DEA00CCF0A3C8C582C8CCC583CCDFE9DEE780D6
:100DFA000D89828A83E493A3F608DFF9ECFAA9F055
:100E0A00EDFB2289828A83ECFAE0A3C8C582C8CCAA
:100E1A00C583CCF0A3C8C582C8CCC583CCDFEADEC3
:100E2A00E880DB89828A83E493A3F208DFF980CC25
:100E3A0088F0EF60010E4E60C388F0ED2402B4041E
:100E4A000050B9F582EB2402B4040050AF232345C5
:060E5A008223900DBA7323
:100E6000C2D530F707B2D563F0FF05F030E70CB21A
:100E7000D5F4048463F0FF05F080018430D502F4DA
:020E800004224A
:100E8200BB010CE58229F582E5833AF583E0225025
:100E920006E92582F8E622BBFE06E92582F8E2226F
:0D0EA200E58229F582E5833AF583E4932289
:100EAF00BB010FF8E58229F582E5833AF583E02847
:100EBF00F0225009C58229F8E58226F622BBFE09E9
:100ECF00C58229F8E22582F222F8EA2583F583E923
:030EDF0093282233
:100EE200F8BB010DE58229F582E5833AF583E8F046
:100EF200225006E92582C8F622BBFE05E92582C8F2
:020F0200F222D9
:100F0400EF8DF0A4A8F0CF8CF0A428CE8DF0A42E01
:020F1400FE22BB
:100F1600BC000BBE0029EF8DF084FFADF022E4CCBF
:100F2600F875F008EF2FFFEE33FEEC33FCEE9DEC88
:100F3600984005FCEE9DFE0FD5F0E9E4CEFD22EDCE
:100F4600F8F5F0EE8420D21CFEADF075F008EF2F18
:100F5600FFED33FD4007985006D5F0F222C398FD09
:050F66000FD5F0EA22A6
:100F6B00A3F8E0C5F025F0F0E58215827002158339
:060F7B00E0C838F0E82296
:1016930002123EE493A3F8E493A34003F68001F21D
:1016A30008DFF48029E493A3F85407240CC8C33358
:1016B300C4540F4420C8834004F456800146F6DF27
:1016C300E4800B0102040810204080901B71E47E2B
:1016D300019360BCA3FF543F30E509541FFEE4931C
:1016E300A360010ECF54C025E060A840B8E493A3E3
:1016F300FAE493A3F8E493A3C8C582C8CAC583CA0E
:10170300F0A3C8C582C8CAC583CADFE9DEE780BEC5
:011B7500006F
:00000001FF
