:031B47002020005B
:041B380041006C00FC
:10111F0012151B78787C007D017E007F07120E016F
:10112F0090007BE0FB3395E0FA9000897402F0A306
:10113F007410F0E4FDFF1213A59000917410F07B72
:10114F003AE4FD7F1012103690007CE0FB3395E0FF
:10115F00FA9000897402F0A37410F0E4FD7F181266
:10116F0013A59000917410F07B3AE4FD7F281210C4
:10117F003690007DE0FB3395E0FA9000897402F021
:10118F00A37410F0E4FD7F301213A5900078E0FBFC
:10119F003395E0FA9000897402F0A37410F07D0289
:1011AF00E4FF1213A59000917410F07B2D7D02FFC8
:1011BF00121036900079E0FB3395E0FA90008974B5
:1011CF0002F0A37410F07D027F181213A590009106
:1011DF007410F07B2D7D027F2812103690007AE07C
:1011EF00FB3395E0FA9000897402F0A37410F07D40
:0611FF00027F300213A57F
:10088600900071E0900084F0900080E0FF7E0064AC
:1008960002700E90006BE004F0E075F00684E5F05F
:1008A600F0EF64034E6003020A0A900068E0FBA3BF
:1008B600E0FAA3E0F9A3E0F5827583007401120E55
:1008C6007690006EE0FF3395E0FED3EF9463EE641E
:1008D6008094804002E4F090006FE0FF3395E0FEE4
:1008E600D3EF940CEE6480948040037401F0900082
:1008F6006FE0FF3395E0FEEF64014E6024EF640382
:100906004E601EEF64054E6018EF64074E6012EFEE
:1009160064084E600CEF640A4E6006EF640C4E707D
:100926001A900070E0FF3395E0FED3EF941FEE645B
:1009360080948050030209C80209C590006FE0FF49
:100946003395E0FEEF64044E6012EF64064E600CD1
:10095600EF64094E6006EF640B4E7016900070E06F
:10096600FF3395E0FED3EF941EEE648094804052F0
:10097600804D90006FE0FF3395E0FEEF64024E700D
:100986004190006EE0FF75F004120E27AFF0EF33D2
:1009960095E04F7016900070E0FF3395E0FED3EFC0
:1009A600941DEE6480948040198014900070E0FFDE
:1009B6003395E0FED3EF941CEE648094804003747C
:1009C60001F0900071E0FF3395E0FED3EF9417EE4F
:1009D600648094804002E4F0900072E0FF3395E07A
:1009E600FED3EF943BEE648094804002E4F09000E6
:1009F60073E0FF3395E0FED3EF943BEE6480948082
:100A06004002E4F0900080E064046003020B8790EB
:100A16000068E0FBA3E0FAA3E0F9A3E0F5827583A2
:100A26000074FF120E7690006EE03395E0C364808A
:100A3600948050037463F090006FE0FF3395E0FEFE
:100A4600C3EF9401EE648094805003740CF0900020
:100A56006FE0FF3395E0FEEF64014E6024EF640320
:100A66004E601EEF64054E6018EF64074E6012EF8D
:100A760064084E600CEF640A4E6006EF640C4E701C
:100A860031900070E0FF3395E0FEC3EF9401EE6411
:100A96008094805003741FF0900070E0FF3395E05F
:100AA600FED3EF941FEE648094805003020B8702FE
:100AB6000B8490006FE0FF3395E0FEEF64044E6018
:100AC60012EF64064E600CEF64094E6006EF640B8D
:100AD6004E7030900070E0FF3395E0FEC3EF940156
:100AE600EE648094805003741EF0900070E0FF3333
:100AF60095E0FED3EF941EEE648094805003020BC3
:100B060087807B90006FE0FF3395E0FEEF64024E36
:100B1600706F90006EE0FF75F004120E27AFF0EFD5
:100B26003395E04F702D900070E0FF3395E0FEC3E3
:100B3600EF9401EE648094805003741DF090007071
:100B4600E0FF3395E0FED3EF941DEE648094804081
:100B560030802B900070E0FF3395E0FEC3EF9401E8
:100B6600EE648094805003741CF0900070E0FF33B4
:100B760095E0FED3EF941CEE6480948040037401EC
:100B8600F0900071E03395E0C36480948050037464
:100B960017F0900072E03395E0C3648094805003B0
:100BA600743BF0900073E03395E0C364809480500A
:100BB60003743BF090006BE0701D90006DE06401E3
:100BC60070157BFF7A1B794790008A7410F07D02BE
:100BD6007F011218A7801A90006EE0FB3395E0FAA9
:100BE6009000897402F0A37410F07D027F01121345
:100BF600A590006BE06401701D90006DE0640170CB
:100C0600157BFF7A1B794790008A7410F07D027F6E
:100C16001E1218A7801A90006FE0FB3395E0FA9039
:100C260000897402F0A37410F07D027F1E1213A5D2
:100C360090006BE06402701D90006DE06401701519
:100C46007BFF7A1B794790008A7410F07D027F3C07
:100C56001218A7801A900070E0FB3395E0FA900016
:100C6600897402F0A37410F07D027F3C1213A590E4
:100C7600006BE06403701D90006DE0640170157BED
:100C8600FF7A1B794790008A7410F0E4FD7F011209
:100C960018A7801A900071E0FB3395E0FA9000895E
:100CA6007402F0A37410F0E4FD7F011213A5900006
:100CB6006BE06404701D90006DE0640170157BFFAD
:100CC6007A1B794790008A7410F0E4FD7F1E121893
:100CD600A7801A900072E0FB3395E0FA90008974C1
:100CE60002F0A37410F0E4FD7F1E1213A590006BB2
:100CF600E06405701B90006DE0640170137BFF7A61
:100D06001B794790008A7410F0E4FD7F3C0218A717
:100D1600900073E0FB3395E0FA9000897402F0A32B
:0A0D26007410F0E4FD7F3C1213A5E9
:010D300022A0
:1012050012146012196C121B3D121AF012151B787C
:10121500787C007D017E007F07120E0190006874C6
:1012250001F0A37400F0A3746EF09000757401F0E2
:10123500A37400F0A37478F0E490007FF090007F31
:10124500E0C39407748094805035900075E0FBA34B
:10125500E0FAA3E0F990007FE0FFF58275830012C4
:101265000E49FE900068E0FBA3E0FAA3E0F98F8247
:10127500758300EE120EA990007FE004F080BE1287
:101285001762900080EFF06401703190006CE0FF10
:101295007E00700904F0E490006BF0801FEF64019C
:1012A5004E701990006CF078847C007D017B017A8A
:1012B50000796EFE7F07120E01120F4890006CE058
:1012C5001460080470B912111F80B412088680AF2B
:101AF0005389F0438901758A18758CFCC28DD28C8C
:071B0000D2A9D2AFC2B92245
:03000B000219BF18
:0D19BF00C0E0C083C082C0D075D000C0075A
:1019CC00758A18758CFC900067E004F07006900026
:1019DC0066E004F0C3900067E094C8900066E09461
:1019EC00004015E4F0A3F090006DE070047F0180DE
:0819FC00027F0090006DEFF086
:0B1A0400D007D0D0D082D083D0E032D9
:051B3D00C2A7C2A122B5
:07183E0090008BEFF0A905FB
:10184500E4FBFAD2A7AF037E007401A80708800560
:10185500C333CE33CED8F9FF90008BE0FDEF5D2486
:10186500FF92A2D2A1C2A10BBB00010AEB64084AF8
:1018750070D3E4FAFBAF037E007401A80708800566
:10188500C333CE33CED8F9FFE9FDEF5D24FF92A235
:10189500D2A1C2A10BBB00010AEB64084A70D6C2F3
:0118A500A79B
:0118A600221F
:02190B00AD0726
:10190D00E4FBF9D2A7ED4401FDEBC3940874809478
:10191D008050227E007401A803088005C333CE33A6
:10192D00CED8F9FFEDF582EF558224FF92A2C2A128
:10193D00D2A10B80D4E4FBEBC39408748094805047
:10194D0017D2A1C2A130A20DA8037401088002C351
:0E195D0033D8FC49F90B80DFC2A7C2A2AF014C
:01196B002259
:100F4800E4FD7F8E12183E900084E0FF75F00A12CF
:100F58000E27C454F0FEEF75F00A120E27AFF0EE1C
:100F68002FFD7F8C12183E900085E0FF75F00A1265
:100F78000E27C454F0FEEF75F00A120E27AFF0EEFC
:100F88002FFD7F8812183E900086E0FF75F00A1248
:100F98000E27C454F0FEEF75F00A120E27AFF0EEDC
:100FA8002FFD7F8612183E900087E0FF75F00A1229
:100FB8000E27C454F0FEEF75F00A120E27AFF0EEBC
:100FC8002FFD7F8412183E900088E0FF75F00A120A
:100FD8000E27C454F0FEEF75F00A120E27AFF0EE9C
:100FE8002FFD7F8212183E900089E0FF75F00A12EB
:100FF8000E27C454F0FEEF75F00A120E27AFF0EE7C
:101008002FFD7F8012183E90008AE0FF75F00A12CB
:101018000E27C454F0FEEF75F00A120E27AFF0EE5B
:0E1028002FFD7F8A12183E7D807F8E02183EBB
:10151B007F8D12190BEFC4540F75F00AA4FEEF5414
:10152B000F2E900084F07F8912190BEFC4540F75A6
:10153B00F00AA4FEEF540F2E900085F07F8712194E
:10154B000BEFC4540F75F00AA4FEEF540F2E90004E
:10155B0086F07F8512190BEFC4540F75F00AA4FEA9
:10156B00EF540F2E900087F07F8312190BEFC454AA
:10157B000F75F00AA4FEEF540F2E900088F07F81B8
:10158B0012190BEFC4540F75F00AA4FEEF540F2E73
:10159B00900089F07F8B12190BEFC4540F75F00A72
:1015AB00A4FEEF540F2E90008AF07B017A00798411
:0115BB00220D
:1017D400EF24FE6020146033146046240370582004
:1017E400B2107F147E00121A7F20B2037F01227F81
:1017F40000227F002220B3107F147E00121A7F2063
:10180400B3037F01227F00227F002220EB107F148C
:101814007E00121A7F20EB037F01227F00227F00CB
:101824002220EA107F147E00121A7F20EA037F012F
:0A183400227F00227F00227F0022A5
:10176200E4900084F020B2167F14FE121A7F30B289
:10177200FD7F147E00121A7F9000847401F020B362
:10178200177F147E00121A7F30B3FD7F147E001281
:101792001A7F9000847402F020EB177F147E0012EF
:1017A2001A7F30EBFD7F147E00121A7F9000847442
:1017B20003F020EA177F147E00121A7F30EAFD7FC1
:1017C200147E00121A7F9000847404F0900084E06A
:0117D200FF17
:0117D30022F3
:101A7F00D3EF9400EE940040257DC7EDD39400740E
:101A8F0080948040127C01ECD39400748094804049
:0E1A9F00031C80F31D80E4EF1F70D51E80D263
:011AAD002216
:01000A0022D3
:10000E000000000000000000002F000000000700AC
:10001E00070000147F147F1400242A7F2A12006226
:10002E0064081323003649552250000005030000D2
:10003E0000001C224100000041221C000014083E5A
:10004E0008140008083E0808000000A06000000820
:10005E000808080800006060000000201008040274
:10006E00003E5149453E0000427F40000042615132
:10007E004946002141454B31001814127F100027CC
:10008E0045454539003C4A4949300001710905038F
:10009E0000364949493600064949291E00003636C0
:1000AE000000000056360000000814224100001423
:1000BE001414141400004122140800020151090600
:1000CE0000324959513E007C1211127C007F494981
:1000DE004936003E41414122007F4141221C007FB2
:1000EE0049494941007F09090901003E4149497AC0
:1000FE00007F0808087F0000417F4100002040413A
:10010E003F01007F08142241007F40404040007FA5
:10011E00020C027F007F0408107F003E4141413EE9
:10012E00007F09090906003E4151215E007F091931
:10013E0029460046494949310001017F0101003F2E
:10014E004040403F001F2040201F003F4038403FAE
:10015E000063140814630007087008070061514912
:10016E00454300007F41410000552A552A550000A5
:10017E0041417F0000040201020400404040404023
:10018E00000001020400002054545478007F4844BB
:10019E00443800384444442000384444487F0038F2
:1001AE005454541800087E0901020018A4A4A47C1B
:1001BE00007F080404780000447D400000408084E5
:1001CE007D00007F102844000000417F4000007C2D
:1001DE0004180478007C0804047800384444443839
:1001EE0000FC242424180018242418FC007C080485
:1001FE00040800485454542000043F444020003C5E
:10020E004040207C001C2040201C003C4030403CE4
:10021E00004428102844001CA0A0A07C0044645474
:10022E004C441414141414140000000000000000B8
:10023E000000000000000000000000F800000000B8
:10024E00000000333000000000100C06100C0600F9
:10025E00000000000000000040C07840C078400060
:10026E00043F04043F040400007088FC08300000C2
:10027E00001820FF211E0000F008F000E01800001A
:10028E0000211C031E211E0000F0088870000000D3
:10029E001E2123241927211010160E000000000025
:1002AE000000000000000000000000E01804020042
:1002BE00000000071820400000020418E0000000B3
:1002CE000040201807000000404080F080404000B1
:1002DE000202010F01020200000000F00000000007
:1002EE000101011F010101000000000000000000DB
:1002FE0080B0700000000000000000000000000050
:10030E0000010101010101010000000000000000D8
:10031E000030300000000000000000008060180473
:10032E00006018060100000000E010080810E00050
:10033E00000F102020100F00001010F80000000019
:10034E000020203F20200000007008080888700060
:10035E0000302824222130000030088888483000E0
:10036E000018202020110E000000C02010F8000000
:10037E0000070424243F240000F808888808080099
:10038E000019212020110E0000E0108888180000AE
:10039E00000F112020110E0000380808C838080080
:1003AE000000003F00000000007088080888700000
:1003BE00001C222121221C0000E010080810E00081
:1003CE000000312222110F00000000C0C00000000A
:1003DE00000000303000000000000080000000002F
:1003EE000000806000000000000080402010080027
:1003FE0000010204081020004040404040404000F0
:10040E0004040404040404000008102040800000CA
:10041E000020100804020100007048080808F000CF
:10042E000000003036010000C030C828E810E0009F
:10043E000718272423140B000000C038E00000002A
:10044E00203C23020227382008F888888870000094
:10045E00203F202020110E00C03008080808380068
:10046E00071820202010080008F808080810E000DF
:10047E00203F202020100F0008F88888E808100080
:10048E00203F20202320180008F88888E808100054
:10049E00203F200003000000C0300808083800008C
:1004AE0007182020221E020008F808000008F8088D
:1004BE00203F210101213F20000808F80808000014
:1004CE000020203F2020000000000808F808080047
:1004DE00C08080807F00000008F888C028180800BF
:1004EE00203F20012638200008F8080000000000F8
:1004FE00203F20202020300008F8F800F8F80800EF
:10050E00203F003F003F200008F830C00008F808E8
:10051E00203F200007183F00E01008080810E000F8
:10052E000F10202020100F0008F808080808F0000F
:10053E00203F210101010000E01008080810E00032
:10054E000F18242438504F0008F8888888887000C7
:10055E00203F2000030C3020007088080808380067
:10056E000038202121221C00180808F8080818005D
:10057E000000203F2000000008F808000008F808DE
:10058E00001F202020201F000878880000C838088F
:10059E00000007380E010000F80800F80008F80007
:1005AE00033C0700073C03000818688080681808A1
:1005BE0020302C03032C30200838C800C83808001F
:1005CE000000203F2000000010080808C83808006E
:1005DE002038262120201800000000FE0202020012
:1005EE000000007F40404000000C30C000000000C2
:1005FE00000000010638C00000020202FE000000EA
:10060E00004040407F00000000000402020204008F
:10061E0000000000000000000000000000000000CC
:10062E0080808080808080800002020400000000B4
:10063E0000000000000000000000808080800000AC
:10064E000019242222223F2008F80080800000009A
:10065E00003F112020110E0000000080808000005D
:10066E00000E112020201100000000808088F8006C
:10067E00000E112020103F2000008080808000009E
:10068E00001F222222221300008080F08888881802
:10069E000020203F2020000000008080808080000D
:1006AE00006B94949493600008F8008080800000A2
:1006BE00203F210000203F2000809898000000007D
:1006CE000020203F202000000000008098980000AD
:1006DE0000C08080807F000008F8000080808000CD
:1006EE00203F24022D302000000808F800000000F2
:1006FE000020203F202000008080808080808000AD
:10070E00203F20003F20003F80800080808000003E
:10071E00203F210000203F200000808080800000CC
:10072E00001F202020201F008080008080000000FD
:10073E0080FFA12020110E0000000080808080002C
:10074E00000E112020A0FF8080808000808080001D
:10075E0020203F212000010000008080808080004A
:10076E000033242424241900008080E080800000BF
:10077E000000001F2020000080800000008080000C
:10078E00001F202020103F2080808000008080806D
:10079E0000010E30080601008080008000808080FD
:1007AE000F300C030C300F00008080008080800022
:1007BE000020312E0E31200080808000008080804D
:1007CE0080818E70180601000080808080808000FD
:1007DE000021302C2221300000000000807C02021B
:1007EE0000000000003F404000000000FF0000003D
:1007FE0000000000FF0000000002027C80000000EC
:10080E000040403F00000000000601010202040407
:10081E00000000000000000040221408F40200F85E
:10082E000808FF0808F80000084482413F002063D2
:10083E0021213F21293360002010E824272424E4BD
:10084E0024342C20E000000080601F090909097F74
:10085E00090949897F00000000007C545556547CDC
:10086E00545655547C000000010101FD4545454597
:08087E00454545FD01010100A3
:101A0F00F583E5822FF582E43583F583E493FF7D3B
:011A1F004086
:101A2000900095EFF0A3EDF01200037F78121AAE4C
:101A3000121B42900096E0FF121AAE121B42900059
:0C1A400095E0FF121AAE121B42021B318F
:10196C00E4900084F0900084E0FFC39408748094A9
:10197C0080503FEF24B0FFE4FD121A20E4FDFF126B
:10198C001A20E4FD7F10121A20E4900085F09000DC
:10199C0085E0C3948074809480500F7D40E4FF12E6
:1019AC001A20900085E004F080E4900084E004F0BC
:0219BC0080B3F6
:0119BE002206
:081A4C0090008EE0FFA3E0FD15
:101A5400900094EFF0ED24B0FFE4FD121A20900002
:101A640094E054F0C4540F4410FFE4FD121A209083
:0B1A74000094E0540FFFE4FD021A2074
:0B10360090008FEDF090008EEFF0FDB9
:10104100E4900092F0A3F0EB24E0900092F0EDD355
:10105100947F74809480400AE490008EF0A3E02491
:1010610002F0900091E0641060030210ED121A4C3E
:10107100E4900093F0900093E0FFC394087480948F
:10108100805025900092E075F010A42FF582E43590
:10109100F0F583E5822436F582E5833402121A19CC
:1010A100900093E004F080CD90008EE0FFA3E00477
:1010B100FD121A54E4900093F0900093E0FFC39462
:1010C10008748094805056900092E075F010A42F1F
:1010D100F582E435F0F583E582243EF582E583343B
:1010E10002121A19900093E004F080CD121A4CE418
:1010F100900093F0900093E0FFC394067480948075
:10110100501B900092E075F006A4240EF582E5F0E4
:0D1111003400121A0F900093E004F080D714
:01111E0022AE
:1012D5007F647E00121A7FE4FD7FAE121A20E4FDC2
:1012E5007F20121A20E4FD7F10121A20E4FD7FB042
:1012F500121A20E4FD7FC1121A20E4FDFF121A2004
:10130500E4FD7F10121A20E4FD7F40121A20E4FD4F
:101315007F81121A20E4FD7FFF121A20E4FD7FA1D0
:10132500121A20E4FD7FC8121A20E4FD7FA6121AC6
:1013350020E4FD7FA8121A20E4FD7F3F121A20E465
:10134500FD7FA4121A20E4FD7FD3121A20E4FDFFCD
:10135500121A20E4FD7FD5121A20E4FD7FF0121A3F
:1013650020E4FD7FD9121A20E4FD7F22121A20E421
:10137500FD7FDA121A20E4FD7F12121A20E4FD7FA8
:10138500DB121A20E4FD7F20121A20E4FD7F8D1266
:101395001A20E4FD7F14121A20E4FD7FAF021A2003
:101B0700E4FD7F8D121A20E4FD7F14121A20E4FDF4
:051B17007FAF021A205F
:101B1C00E4FD7F8D121A20E4FD7F10121A20E4FDE3
:051B2C007FAE021A204B
:071AD20090008EEFF0A90562
:101AD9007F017E00AD0119ED600C90008EE0FD7C68
:061AE90000120ECB80EE9E
:011AEF0022D4
:0E13A500900085EFF0A3EDF0A3EAF0A3EBF0CB
:1013B300E490008DF090008BF0900089E0FF9000A6
:1013C3008BE0FEC39F400302145FC3EF9E14FD7FB7
:1013D3000A121AD2900087E0FCA3E0FDCFCDCFCE56
:1013E300CCCE120EDD7C007D0A120EDD90008CED5A
:1013F300F0A3E07036900089E014FF90008BE0FECC
:10140300C39F5027A3E0701D90008AE0FCC3138E96
:10141300F0A4FF900085E02FFFA3E0FD900091EC86
:10142300F07B30802B90008D7401F090008AE0FEF9
:10143300C313FFA3E0FDEF8DF0A4FF900085E02F21
:10144300FFA3E0FD90008CE02430FB900091EEF0D0
:0C14530012103690008BE004F00213BC75
:01145F00226A
:1018A700900085EFF0A3EDF0A3EBF0A3EAF0A3E936
:0118B700F040
:1018B800E490008BF0900087E0FBA3E0FAA3E0F946
:1018C80090008BE0F582758300120E49FB6033901F
:1018D8000085E0FFA3E0FD90008AE0900091F012FF
:1018E8001036900085E02408F0E0D3947874809452
:1018F800804007E4F0A3E02402F090008BE004F0BD
:0219080080B3AA
:01190A0022BA
:0D16DA009000A4EBF09000A2EFF0A3EDF063
:1016E700E49000A6F0121A54E49000A5F09000A52B
:1016F700E0FFC394107480948050209000A4E0C44D
:101707003354E02426F582E43408121A0F9000A619
:10171700E004F09000A5E004F080D29000A2E0FF82
:10172700A3E004FD121A54E49000A5F09000A5E090
:10173700FFC394107480948050209000A4E0C433B9
:1017470054E02436F582E43408121A0F9000A6E01C
:0A17570004F09000A5E004F080D239
:011761002265
:0A15BC00900097EFF0900099EBF01B
:1015C600E490009EF0A3F090009AE0FF54077008A4
:1015D600EF131313541F800A90009AE01313135449
:1015E6001F049000A1F09000A1EDF090009AE0FF9A
:1015F6009000A1E0FDC39F504E900097E0FF121AA5
:1016060054900097E09000A0F0900099E0FF9000C1
:10161600A0E0C39F502990009BE0FBA3E0FAA3E063
:10162600F9A3E475F001120F3285F082F583120EEC
:1016360049FF7D40121A209000A0E004F080CA9075
:0716460000A1E004F080A404
:01164D00227A
:10146000E4FD7FAE121A20E4FDFF121A20E4FD7F96
:1014700010121A20E4FD7F40121A20E4FD7FB01202
:101480001A20E4FD7F81121A20E4FD7FFF121A204A
:10149000E4FD7FA1121A20E4FD7FA6121A20E4FDCC
:1014A0007FA8121A20E4FD7F3F121A20E4FD7FC8B6
:1014B000121A20E4FD7FD3121A20E4FDFF121A2035
:1014C000E4FD7FD5121A20E4FD7F80121A20E4FD8E
:1014D0007FD8121A20E4FD7F05121A20E4FD7FD97F
:1014E000121A20E4FD7FF1121A20E4FD7FDA121AAD
:1014F00020E4FD7F12121A20E4FD7FDB121A20E4A3
:10150000FD7F40121A20E4FD7F8D121A20E4FD7F3A
:0B15100014121A20E4FD7FAF021A2025
:07000300D2A4D2A5C2A52280
:071B3100D2A4C2A5D2A52237
:101AAE00C2A4E4FDFCEF30E703D38001C392A5D2BC
:101ABE00A400C2A4EF25E0FF0DBD00010CED6408EB
:031ACE004C70E277
:011AD10022F2
:051B4200D2A4C2A422A0
:0300000002164E97
:0C164E00787FE4F6D8FD75810702169540
:100D3100E709F608DFFA8046E709F208DFFA803EA4
:100D410088828C83E709F0A3DFFA8032E309F60891
:100D5100DFFA8078E309F208DFFA807088828C83F9
:100D6100E309F0A3DFFA806489828A83E0A3F608AD
:100D7100DFFA805889828A83E0A3F208DFFA804C87
:100D810080D280FA80C680D4806980F2803380105E
:100D910080A680EA809A80A880DA80E280CA8033C7
:100DA10089828A83ECFAE493A3C8C582C8CCC5833F
:100DB100CCF0A3C8C582C8CCC583CCDFE9DEE7800F
:100DC1000D89828A83E493A3F608DFF9ECFAA9F08E
:100DD100EDFB2289828A83ECFAE0A3C8C582C8CCE4
:100DE100C583CCF0A3C8C582C8CCC583CCDFEADEFD
:100DF100E880DB89828A83E493A3F208DFF980CC5F
:100E010088F0EF60010E4E60C388F0ED2402B40457
:100E11000050B9F582EB2402B4040050AF232345FE
:060E21008223900D817395
:100E2700C2D530F707B2D563F0FF05F030E70CB253
:100E3700D5F4048463F0FF05F080018430D502F413
:020E4700042283
:100E4900BB010CE58229F582E5833AF583E022505E
:100E590006E92582F8E622BBFE06E92582F8E222A8
:0D0E6900E58229F582E5833AF583E49322C2
:100E7600BB010FF8E58229F582E5833AF583E02880
:100E8600F0225009C58229F8E58226F622BBFE0922
:100E9600C58229F8E22582F222F8EA2583F583E95C
:030EA6009328226C
:100EA900F8BB010DE58229F582E5833AF583E8F07F
:100EB900225006E92582C8F622BBFE05E92582C82B
:020EC900F22213
:100ECB00EF8DF0A4A8F0CF8CF0A428CE8DF0A42E3B
:020EDB00FE22F5
:100EDD00BC000BBE0029EF8DF084FFADF022E4CCF9
:100EED00F875F008EF2FFFEE33FEEC33FCEE9DECC2
:100EFD00984005FCEE9DFE0FD5F0E9E4CEFD22ED08
:100F0D00F8F5F0EE8420D21CFEADF075F008EF2F51
:100F1D00FFED33FD4007985006D5F0F222C398FD42
:050F2D000FD5F0EA22DF
:100F3200A3F8E0C5F025F0F0E58215827002158372
:060F4200E0C838F0E822CF
:10165A00021205E493A3F8E493A34003F68001F28F
:10166A0008DFF48029E493A3F85407240CC8C33391
:10167A00C4540F4420C8834004F456800146F6DF60
:10168A00E4800B0102040810204080901B38E47E9D
:10169A00019360BCA3FF543F30E509541FFEE49355
:1016AA00A360010ECF54C025E060A840B8E493A31C
:1016BA00FAE493A3F8E493A3C8C582C8CAC583CA47
:1016CA00F0A3C8C582C8CAC583CADFE9DEE780BEFF
:011B3C0000A8
:00000001FF
