:10078000120ABB120B6712081678217C007D007ECE
:10079000007F071200D3E52124D0FFE43407FEE4F4
:1007A0008F0F8E0EF50DF50C7D01FC7F01FE1204FE
:1007B0009EE485220FF50EF50DF50C7D06FC7F01FC
:1007C000FE12049EE485230FF50EF50DF50C7D0950
:1007D000FC7F01FE12049EE485240FF50EF50DF555
:1007E0000C7D01FC7F02FE12049EE485250FF50EB0
:1007F000F50DF50C7D04FC7F02FE12049EE48526B7
:100800000FF50EF50DF50C7510027D07FC7F02FE4D
:06081000120254020786EB
:10092D00EF24FE60201460331460462403705820B9
:10093D00B2107F147E00120A8C20B2037F01227F39
:10094D0000227F002220B3107F147E00120A8C201B
:10095D00B3037F01227F00227F002220EB107F1442
:10096D007E00120A8C20EB037F01227F00227F0084
:10097D002220EA107F147E00120A8C20EA037F01E8
:0A098D00227F00227F00227F00225B
:080B5A00756E69636F726E0095
:0D0B41007580FFC2A0D2A1D2A2E5803322B0
:100B3100120B4140FBC2A0C2A18F80D2A2C2A2224D
:100A5C00AB17AA16A915A814AF0FAE0EAD0DAC0CA2
:100A6C001201B1E47B0AFAF9F81201B1EB2430FF60
:100A7C00120B4140FBD2A0C2A18F80D2A2C2A222F3
:100ABB007F38120B317F0C120B317F06120B317FFB
:100ACB0001120B317BFF7A0B795A7D057C007E007E
:0D0ADB001208A97F647E00120A8C020B62D3
:050B62007F01020B31D0
:100B0500AD07AC06ED1DAE0470011C4E60077F1DE0
:050B1500120B3180EF1E
:010B1A0022B8
:100B1B00AD07AC06ED1DAE0470011C4E60077F18CF
:050B2B00120B3180EF08
:010B300022A2
:100AE8008E83AE03EF640145837005ED247F800398
:0D0AF800ED24BFFF120B31AF06120A7C2265
:0608A9008B088A09890A90
:1008AF00EF64014E703BF50BF50CAB08AA09A90AD2
:1008BF00850C82850B831200F96062ED247F250C75
:1008CF00FF120B31AB08AA09A90A850C82850B838D
:1008DF001200F9FF120A7C050CE50C70CD050B8098
:1008EF00C9E4F50BF50CAB08AA09A90A850C82859A
:1008FF000B831200F96026ED24BF250CFF120B317C
:10090F00AB08AA09A90A850C82850B831200F9FF8F
:0D091F00120A7C050CE50C70CD050B80C99B
:01092C0022A8
:08049E008C0A8D0BAB07AA06C6
:1004A600E4751301F512F511F510751701F516F53A
:1004B60015F514751B01F51AF519F518EB64014AC3
:1004C60060030205CBE50B247FFF120B31E47F0AA4
:1004D600FEFDFCAB13AA12A911A810120126A8044E
:1004E600A905AA06AB07AF0FAE0EAD0DAC0C1201F7
:1004F600B1E4FBFAF9F8C3120243602EAF13AE1251
:10050600AD11AC10E47B0AF81201268F138E128D02
:10051600118C10E51B2401F51BE4351AF51AE43598
:1005260019F519E43518F51880A3851B1F851A1EC1
:1005360085191D85181CE47F01FEFDFCAB1FAA1E54
:10054600A91DA81CC312024350030206C8E4751372
:1005560001F512F511F510AF1FAE1EAD1DAC1CABAB
:1005660013AA12A911A810C31202435030AF17AE36
:1005760016AD15AC14E47B0AFAF9F81201268F17AA
:100586008E168D158C14E5132401F513E43512F53A
:1005960012E43511F511E43510F51080BA120A5C33
:1005A600E4751701F516F515F514E51F24FFF51F7B
:1005B600E51E34FFF51EE51D34FFF51DE51C34FF71
:1005C600F51C02053CE50B24BFFF120B31E47F0A44
:1005D600FEFDFCAB13AA12A911A810120126A8044D
:1005E600A905AA06AB07AF0FAE0EAD0DAC0C1201F6
:1005F600B1E4FBFAF9F8C3120243602EAF13AE1250
:10060600AD11AC10E47B0AF81201268F138E128D01
:10061600118C10E51B2401F51BE4351AF51AE43597
:1006260019F519E43518F51880A3851B1F851A1EC0
:1006360085191D85181CE47F01FEFDFCAB1FAA1E53
:10064600A91DA81CC31202434078E4751301F512D4
:10065600F511F510AF1FAE1EAD1DAC1CAB13AA12E3
:10066600A911A810C31202435030AF17AE16AD152C
:10067600AC14E47B0AFAF9F81201268F178E168D50
:10068600158C14E5132401F513E43512F512E4353F
:1006960011F511E43510F51080BA120A5CE47517ED
:1006A60001F516F515F514E51F24FFF51FE51E34B3
:1006B600FFF51EE51D34FFF51DE51C34FFF51C0294
:0206C600063CF0
:0106C800220F
:080254008C0A8D0BAB07AA0612
:10025C00E4751401F513F512F511751801F517F580
:10026C0016F515751C01F51BF51AF519EB64014A09
:10027C00600302038FE50B247FFF120B31E47F0A2E
:10028C00FEFDFCAB14AA13A912A811120126A80496
:10029C00A905AA06AB07AF0FAE0EAD0DAC0C120143
:1002AC00B1E4FBFAF9F8C3120243602EAF14AE139B
:1002BC00AD12AC11E47B0AF81201268F148E138D4B
:1002CC00128C11E51C2401F51CE4351BF51BE435DF
:1002DC001AF51AE43519F51980A3E4851020F51FD9
:1002EC00F51EF51DE47F01FEFDFCAB20AA1FA91E27
:1002FC00A81DC3120243500302049DE4751401F5BA
:10030C0013F512F511AF20AE1FAD1EAC1DAB14AA28
:10031C0013A912A811C31202435030AF18AE17AD77
:10032C0016AC15E47B0AFAF9F81201268F188E1711
:10033C008D168C15E5142401F514E43513F513E42E
:10034C003512F512E43511F51180BAAB18AA17A9BC
:10035C0016A815AF0FAE0EAD0DAC0C120A6CE475F1
:10036C001801F517F516F515E52024FFF520E51F06
:10037C0034FFF51FE51E34FFF51EE51D34FFF51D9A
:10038C000202F0E50B24BFFF120B31E47F0AFEFDE5
:10039C00FCAB14AA13A912A811120126A804A905D2
:1003AC00AA06AB07AF0FAE0EAD0DAC0C1201B1E44B
:1003BC00FBFAF9F8C3120243602EAF14AE13AD1260
:1003CC00AC11E47B0AF81201268F148E138D128C5B
:1003DC0011E51C2401F51CE4351BF51BE4351AF55D
:1003EC001AE43519F51980A3E4851020F51FF51EC4
:1003FC00F51DE47F01FEFDFCAB20AA1FA91EA81D64
:10040C00C3120243500302049DE4751401F513F565
:10041C0012F511AF20AE1FAD1EAC1DAB14AA13A963
:10042C0012A811C31202435030AF18AE17AD16AC60
:10043C0015E47B0AFAF9F81201268F188E178D161F
:10044C008C15E5142401F514E43513F513E4351279
:10045C00F512E43511F51180BAAB18AA17A916A834
:10046C0015AF0FAE0EAD0DAC0C120A6CE475180185
:10047C00F517F516F515E52024FFF520E51F34FFDB
:10048C00F51FE51E34FFF51EE51D34FFF51D0203B7
:01049C00FE61
:01049D00223C
:100A8C00D3EF9400EE940040257DC7EDD394007411
:100A9C0080948040127C01ECD3940074809480404C
:0E0AAC00031C80F31D80E4EF1F70D51E80D266
:010ABA002219
:010B6C002266
:050B6700C2A7C2A52297
:0309970025F0FD4B
:04099A008F2FA905ED
:10099E00E4FBFAD2A7AF037E007401A80708800516
:1009AE00C333CE33CED8F9FFEF552F24FF92A6D204
:1009BE00A5C2A50BBB00010AEB64084A70D7E4FA86
:1009CE00FBAF037E007401A807088005C333CE3346
:1009DE00CED8F9FFE9FDEF5D24FF92A6D2A5C2A500
:0D09EE000BBB00010AEB64084A70D6C2A7DB
:0109FB0022D9
:0209FC00AD0745
:1009FE00E4FBF9D2A7430501EBC3940874809480FD
:100A0E0050227E007401A803088005C333CE33CE76
:100A1E00D8F9FFEDF582EF558224FF92A6C2A5D23A
:100A2E00A50B80D4E4FBEBC394087480948050171C
:100A3E00D2A5C2A530A60DA8037401088002C33347
:0D0A4E00D8FC42010B80DFC2A7C2A6AF0199
:010A5B002278
:1006C900E4FD7F8E12099AE52875F00A84C454F076
:1006D900FFE52875F00A84EF7F8C120997E52975E3
:1006E900F00A84C454F0FFE52975F00A84EF7F8885
:1006F900120997E52A75F00A84C454F0FFE52A75B2
:10070900F00A84EF25F0FD7F8612099AE52B75F032
:100719000A84C454F0FFE52B75F00A84EF25F0FD37
:100729007F8412099AE52C75F00A84C454F0FFE518
:100739002C75F00A84EF25F0FD7F8212099AE52DC8
:1007490075F00A84C454F0FFE52D75F00A84EF258D
:10075900F0FD7F8012099AE52E75F00A84C454F0E1
:10076900FFE52E75F00A84EF25F0FD7F8A12099ABC
:070779007D807F8E02099ACA
:100816007F8D1209FCEFC4540F75F00AA4FEEF5445
:100826000F2EF5087F891209FCEFC4540F75F00AE4
:10083600A4FEEF540F2EF5097F871209FCEFC4546E
:100846000F75F00AA4FEEF540F2EF50A7F851209E4
:10085600FCEFC4540F75F00AA4FEEF540F2EF50BEF
:100866007F831209FCEFC4540F75F00AA4FEEF54FF
:100876000F2EF50C7F811209FCEFC4540F75F00A98
:10088600A4FEEF540F2EF50D7F8B1209FCEFC45416
:100896000F75F00AA4FEEF540F2EF50E7B007A00BA
:0208A6007908CF
:0108A800222D
:03000000020B4EA2
:0C0B4E00787FE4F6D8FD75812F02078047
:10000300E709F608DFFA8046E709F208DFFA803EDF
:1000130088828C83E709F0A3DFFA8032E309F608CC
:10002300DFFA8078E309F208DFFA807088828C8334
:10003300E309F0A3DFFA806489828A83E0A3F608E8
:10004300DFFA805889828A83E0A3F208DFFA804CC2
:1000530080D280FA80C680D4806980F28033801099
:1000630080A680EA809A80A880DA80E280CA803302
:1000730089828A83ECFAE493A3C8C582C8CCC5837A
:10008300CCF0A3C8C582C8CCC583CCDFE9DEE7804A
:100093000D89828A83E493A3F608DFF9ECFAA9F0C9
:1000A300EDFB2289828A83ECFAE0A3C8C582C8CC1F
:1000B300C583CCF0A3C8C582C8CCC583CCDFEADE38
:1000C300E880DB89828A83E493A3F208DFF980CC9A
:1000D30088F0EF60010E4E60C388F0ED2402B40493
:1000E3000050B9F582EB2402B4040050AF2323453A
:0600F3008223900053730C
:1000F900BB010CE58229F582E5833AF583E02250BC
:1001090006E92582F8E622BBFE06E92582F8E22205
:0D011900E58229F582E5833AF583E493221F
:10012600E88FF0A4CC8BF0A42CFCE98EF0A42CFC78
:100136008AF0EDA42CFCEA8EF0A4CDA8F08BF0A4F6
:100146002DCC3825F0FDE98FF0A42CCD35F0FCEB55
:100156008EF0A4FEA9F0EB8FF0A4CFC5F02ECD391A
:0F016600FEE43CFCEAA42DCE35F0FDE43CFC2287
:1001750075F008758200EF2FFFEE33FECD33CDCC41
:1001850033CCC58233C5829BED9AEC99E5829840C4
:100195000CF582EE9BFEED9AFDEC99FC0FD5F0D6A1
:1001A500E4CEFBE4CDFAE4CCF9A88222B800C1B9CB
:1001B5000059BA002DEC8BF084CFCECDFCE5F0CB09
:1001C500F97818EF2FFFEE33FEED33FDEC33FCEB42
:1001D50033FB10D703994004EB99FB0FD8E5E4F9FD
:1001E500FA227818EF2FFFEE33FEED33FDEC33FCEA
:1001F500C933C910D7059BE99A4007EC9BFCE99ADE
:10020500F90FD8E0E4C9FAE4CCFB2275F010EF2F22
:10021500FFEE33FEED33FDCC33CCC833C810D70722
:100225009BEC9AE899400AED9BFDEC9AFCE899F85D
:0E0235000FD5F0DAE4CDFBE4CCFAE4C8F922F0
:10024300EB9FF5F0EA9E42F0E99D42F0E89C45F011
:010253002288
:00000001FF
