:10000300EF24FE601A146027146034240370402028
:10001300B20D7F147E0012005520B2037F0122200F
:10002300B30D7F147E0012005520B3037F012220FD
:10003300EB0D7F147E0012005520EB037F0122207D
:10004300EA0D7F147E0012005520EA037F01227F10
:02005300002289
:10005500D3EF9400EE940040257DC7EDD394007452
:1000650080948040127C01ECD3940074809480408D
:0E007500031C80F31D80E4EF1F70D51E80D2A7
:01008300225A
:0C009F007F03120003EF60F8B28480F4CD
:100084007FF47E017D6E7C00ED1D70011CED4C70D3
:0A009400F7EF1F70011EEF4E70EA37
:01009E00223F
:030000000200AB50
:0C00AB00787FE4F6D8FD75810702009F05
:00000001FF
