:10074700756E69636F726E0074616E6B696F6E6C44
:10075700696E652074616E6B696F6E6C696E65009A
:0707CF00D288D2A8D2AF22AC
:0707D600D28AD2AAD2AF22A1
:1005400012071A7BFF7A0779477D017C007F017EC5
:100550000012047C7BFF7A07794F7D017C007F02CB
:100560007E0012047C90000412044B00257B8A7DDF
:100570000A7C007F017E0012001690000412044BDA
:1005800000005FF87D1C7C007F027E001200167F59
:10059000011205CBEF60097F017E0012077F80EF1B
:1005A0007F021205CBEF60097F017E001207958064
:1005B000DE7F031205CBEF60051207DD80D17F04DB
:0B05C0001205CBEF60C912071A80C4BF
:03000300020635BD
:10063500C0E0C0F0C083C082C0D075D000C000C08B
:1006450001C002C003C004C005C006C0077F017E0B
:100655000012077FD007D006D005D004D003D00202
:0F066500D001D000D0D0D082D083D0F0D0E032FE
:030013000206B032
:1006B000C0E0C0F0C083C082C0D075D000C000C010
:1006C00001C002C003C004C005C006C0071207DD98
:1006D000D007D006D005D004D003D002D001D0007E
:0B06E000D0D0D082D083D0F0D0E03228
:0807C700756E69636F726E002C
:0D0006007580FFC2A0D2A1D2A2E5803322F6
:1007AB0012000640FBC2A0C2A18F80D2A2C2A2221D
:1006740090000CE0F8A3E0F9A3E0FAA3E0FB9000FB
:1006840004E0FCA3E0FDA3E0FEA3E0FF12039CE46E
:0C0694007B0AFAF9F812039CEB2430FFFB
:1006A00012000640FBD2A0C2A18F80D2A2C2A22219
:10071A007F381207AB7F0C1207AB7F061207AB7F3D
:10072A00011207AB7BFF7A0779C77D057C007E0043
:0D073A0012047C7F647E001206EB0207DDD6
:0507DD007F010207ABE3
:10077F00AD07AC06ED1DAE0470011C4E60077F1D6A
:05078F001207AB80EF32
:010794002242
:10079500AD07AC06ED1DAE0470011C4E60077F1859
:0507A5001207AB80EF1C
:0107AA00222C
:10076700EF64014E7005ED247F8003ED24BFFF1277
:0807770007ABAF031206A0223C
:10047C00900000ECF0A3EDF0A3EBF0A3EAF0A3E9FD
:01048C00F07F
:10048D00EF64014E7056A3F0A3F0900002E0FBA3C1
:10049D00E0FAA3E0F9A3E0FEA3E0FFF5828E83125C
:1004AD0002E4700302053F900000A3E0247F2FFFBC
:1004BD001207ABA3E0FBA3E0FAA3E0F9A3E0FEA3D0
:1004CD00E0F5828E831202E4FF1206A0900006E092
:1004DD0004F070B6900005E004F080AEE4900005E5
:1004ED00F0A3F0900002E0FBA3E0FAA3E0F9A3E093
:1004FD00FEA3E0FFF5828E831202E46035900000CA
:10050D00A3E024BF2FFF1207ABA3E0FBA3E0FAA3E8
:10051D00E0F9A3E0FEA3E0F5828E831202E4FF1260
:10052D0006A0900006E004F070B9900005E004F01C
:02053D0080B18B
:01053F002299
:0C001600900002ECF0A3EDF0AB07AA068E
:1000220090000812044B0000000190000C12044BD7
:100032000000000190001012044B00000001EB646C
:10004200014A6003020196900002A3E0247FFF129E
:1000520007ABE47F0AFEFDFC900008E0F8A3E0F99C
:10006200A3E0FAA3E0FB120311A804A905AA06ABB8
:1000720007900004E0FCA3E0FDA3E0FEA3E0FF1272
:10008200039CE4FBFAF9F8C312042E603C900008CA
:10009200E0FCA3E0FDA3E0FEA3E0FFE47B0AF8128C
:1000A200031190000812043F900010E0FCA3E0FD51
:1000B200A3E0FEA3E02401FFE43EFEE43DFDE43CB8
:1000C200FC90001012043F8089900010E0FCA3E035
:1000D200FDA3E0FEA3E0FFA3020190E47F01FEFD89
:1000E200FC900014E0F8A3E0F9A3E0FAA3E0FBC35C
:1000F20012042E50030202E390000812044B000087
:100102000001900014E0FCA3E0FDA3E0FEA3E0FFE9
:10011200900008E0F8A3E0F9A3E0FAA3E0FBC31221
:10012200042E503E90000CE0FCA3E0FDA3E0FEA3F1
:10013200E0FFE47B0AFAF9F812031190000C1204B2
:100142003F900008E0FCA3E0FDA3E0FEA3E0240151
:10015200FFE43EFEE43DFDE43CFC90000812043F57
:1001620080A012067490000C12044B000000019053
:100172000014E0FCA3E0FDA3E0FEA3E024FFFFEEF9
:1001820034FFFEED34FFFDEC34FFFC90001412044A
:100192003F0200DD900002A3E024BFFF1207ABE4A0
:1001A2007F0AFEFDFC900008E0F8A3E0F9A3E0FA64
:1001B200A3E0FB120311A804A905AA06AB0790004D
:1001C20004E0FCA3E0FDA3E0FEA3E0FF12039CE435
:1001D200FBFAF9F8C312042E603C900008E0FCA37D
:1001E200E0FDA3E0FEA3E0FFE47B0AF81203119016
:1001F200000812043F900010E0FCA3E0FDA3E0FE23
:10020200A3E02401FFE43EFEE43DFDE43CFC90005B
:100212001012043F8089900010E0FCA3E0FDA3E0EF
:10022200FEA3E0FFA30202DDE47F01FEFDFC9000DD
:1002320014E0F8A3E0F9A3E0FAA3E0FBC312042E52
:1002420050030202E390000812044B0000000190E8
:100252000014E0FCA3E0FDA3E0FEA3E0FF90000891
:10026200E0F8A3E0F9A3E0FAA3E0FBC312042E50E6
:100272003E90000CE0FCA3E0FDA3E0FEA3E0FFE45F
:100282007B0AFAF9F812031190000C12043F900055
:1002920008E0FCA3E0FDA3E0FEA3E02401FFE43EAE
:1002A200FEE43DFDE43CFC90000812043F80A012F5
:1002B200067490000C12044B00000001900014E040
:1002C200FCA3E0FDA3E0FEA3E024FFFFEE34FFFE6B
:1002D200ED34FFFDEC34FFFC90001412043F0202E7
:0102E2002AF1
:0102E30022F8
:1005CB00EF24FE602014603314604624037058201F
:1005DB00B2107F147E001206EB20B2037F01227F44
:1005EB0000227F002220B3107F147E001206EB2026
:1005FB00B3037F01227F00227F002220EB107F14A8
:10060B007E001206EB20EB037F01227F00227F008E
:10061B002220EA107F147E001206EB20EA037F01F2
:0A062B00227F00227F00227F0022C0
:1006EB00D3EF9400EE940040257DC7EDD3940074B6
:1006FB0080948040127C01ECD394007480948040F1
:0E070B00031C80F31D80E4EF1F70D51E80D20A
:0107190022BD
:030000000207BB39
:0C07BB00787FE4F6D8FD75810702054048
:1002E400BB010CE58229F582E5833AF583E02250CF
:1002F40006E92582F8E622BBFE06E92582F8E22219
:0D030400E58229F582E5833AF583E4932232
:10031100E88FF0A4CC8BF0A42CFCE98EF0A42CFC8B
:100321008AF0EDA42CFCEA8EF0A4CDA8F08BF0A409
:100331002DCC3825F0FDE98FF0A42CCD35F0FCEB68
:100341008EF0A4FEA9F0EB8FF0A4CFC5F02ECD392D
:0F035100FEE43CFCEAA42DCE35F0FDE43CFC229A
:1003600075F008758200EF2FFFEE33FECD33CDCC54
:1003700033CCC58233C5829BED9AEC99E5829840D7
:100380000CF582EE9BFEED9AFDEC99FC0FD5F0D6B4
:10039000E4CEFBE4CDFAE4CCF9A88222B800C1B9DE
:1003A0000059BA002DEC8BF084CFCECDFCE5F0CB1C
:1003B000F97818EF2FFFEE33FEED33FDEC33FCEB55
:1003C00033FB10D703994004EB99FB0FD8E5E4F910
:1003D000FA227818EF2FFFEE33FEED33FDEC33FCFD
:1003E000C933C910D7059BE99A4007EC9BFCE99AF1
:1003F000F90FD8E0E4C9FAE4CCFB2275F010EF2F36
:10040000FFEE33FEED33FDCC33CCC833C810D70735
:100410009BEC9AE899400AED9BFDEC9AFCE899F870
:0E0420000FD5F0DAE4CDFBE4CCFAE4C8F92203
:10042E00EB9FF5F0EA9E42F0E99D42F0E89C45F024
:01043E00229B
:0C043F00ECF0A3EDF0A3EEF0A3EFF02230
:10044B00A8828583F0D083D08212046212046212D8
:10045B000462120462E473E493A3C583C5F0C583FD
:10046B00C8C582C8F0A3C583C5F0C583C8C582C8FB
:01047B00225E
:00000001FF
