:10119C0020200020202D20202D20200020203A204F
:0511AC00203A202000A4
:100D1B00120DD3781A7C007D007E007F0712050D23
:100D2B00AF1AEF3395E08F2EF52DF52CF52B752F94
:100D3B00027D017C007F017E00120705AF1BEF33A4
:100D4B0095E08F2EF52DF52CF52B752F027D047C60
:100D5B00007F017E00120705AF1CEF3395E08F2E4D
:100D6B00F52DF52CF52B752F027D077C007F017E71
:100D7B0000120705AF1DEF3395E08F2EF52DF52CE7
:100D8B00F52B752F027D017C007F027E001207057B
:100D9B00AF1EEF3395E08F2EF52DF52CF52B752F20
:100DAB00027D047C007F027E00120705AF1FEF332C
:100DBB0095E08F2EF52DF52CF52B752F027D077CED
:080DCB00007F027E0002070513
:10000E00851326AF227E00EF6402700B050DE50D01
:10001E0075F0068485F00DEF64034E6003020165F2
:10002E00AB0AAA0BA90C850D82F58304120582AFCB
:10003E0010EF3395E0FED3EF9463EE64809480402E
:10004E0003E4F510AF11EF3395E0FED3EF940CEE11
:10005E00648094804003751101AF11EF3395E0FE7B
:10006E00EF64014E6024EF64034E601EEF64054E94
:10007E006018EF64074E6012EF64084E600CEF6478
:10008E000A4E6006EF640C4E7014AF12EF3395E01B
:10009E00FED3EF941FEE64809480407C8077AF1186
:1000AE00EF3395E0FEEF64044E6012EF64064E608F
:1000BE000CEF64094E6006EF640B4E7014AF12EF36
:1000CE003395E0FED3EF941EEE6480948040498019
:1000DE0044AF11EF3395E0FEEF64024E703AE51037
:1000EE0075F004120533AFF0EF3395E04F7014AF97
:1000FE0012EF3395E0FED3EF941DEE6480948040B2
:10010E00178012AF12EF3395E0FED3EF941CEE641E
:10011E008094804003751201AF13EF3395E0FED348
:10012E00EF9417EE648094804003E4F513AF14EF60
:10013E003395E0FED3EF943BEE648094804003E46D
:10014E00F514AF15EF3395E0FED3EF943BEE6480DC
:10015E0094804003E4F515E522640460030202BABC
:10016E00AB0AAA0BA90C850D82F58374FF120582CA
:10017E00AF10EF3395E0C364809480500375106325
:10018E00AF11EF3395E0FEC3EF9401EE64809480DF
:10019E00500375110CAF11EF3395E0FEEF64014E75
:1001AE006024EF64034E601EEF64054E6018EF642A
:1001BE00074E6012EF64084E600CEF640A4E600644
:1001CE00EF640C4E702DAF12EF3395E0FEC3EF943B
:1001DE0001EE64809480500375121FAF12EF3395B9
:1001EE00E0FED3EF941FEE6480948050030202BAB7
:1001FE000202B7AF11EF3395E0FEEF64044E6012CA
:10020E00EF64064E600CEF64094E6006EF640B4E11
:10021E007029AF12EF3395E0FEC3EF9401EE6480C8
:10022E009480500375121EAF12EF3395E0FED3EF9C
:10023E00941EEE648094804073806EAF11EF339500
:10024E00E0FEEF64024E7064E51075F004120533A3
:10025E00AFF0EF3395E04F7029AF12EF3395E0FE1C
:10026E00C3EF9401EE64809480500375121DAF129B
:10027E00EF3395E0FED3EF941DEE64809480402C16
:10028E008027AF12EF3395E0FEC3EF9401EE64804A
:10029E009480500375121CAF12EF3395E0FED3EF2E
:1002AE00941CEE648094804003751201AF13EF33FB
:1002BE0095E0C3648094805003751317AF14EF3329
:1002CE0095E0C364809480500375143BAF15EF33F3
:1002DE0095E0C364809480500375153BE50D70174F
:1002EE00E50F640170117BFF7A11799C7D01FC7F13
:1002FE0001FE120E66801CAF10EF3395E08F2EF5C7
:10030E002DF52CF52B752F027D017C007F017E00D3
:10031E00120705E50D64017017E50F640170117B7E
:10032E00FF7A11799C7D04FC7F01FE120E66801C03
:10033E00AF11EF3395E08F2EF52DF52CF52B752F94
:10034E00027D047C007F017E00120705E50D64022C
:10035E007017E50F640170117BFF7A11799C7D0790
:10036E00FC7F01FE120E66801CAF12EF3395E08FFC
:10037E002EF52DF52CF52B752F027D077C007F01B8
:10038E007E00120705E50D64037017E50F6401701A
:10039E00117BFF7A11799C7D01FC7F02FE120E66A5
:1003AE00801CAF13EF3395E08F2EF52DF52CF52B2A
:1003BE00752F027D017C007F027E00120705E50D80
:1003CE0064047017E50F640170117BFF7A11799C3C
:1003DE007D04FC7F02FE120E66801CAF14EF339577
:1003EE00E08F2EF52DF52CF52B752F027D047C005C
:1003FE007F027E00120705E50D64057015E50F649A
:10040E0001700F7BFF7A11799C7D07FC7F02FE0243
:10041E000E66AF15EF3395E08F2EF52DF52CF52BDF
:0E042E00752F027D077C007F027E00120705FD
:01043C00229D
:100C5A0012110F1211DF121159120DD3781A7C00DA
:100C6A007D007E007F0712050D750A00750B007561
:100C7A000C1075170075180075191AE4F521C3E5EB
:100C8A00219407748094805022AB17AA18A9198559
:100C9A002182758300120555AB0AAA0BA90C85217E
:100CAA00827583001205B5052180D37BFF7A1179FD
:100CBA009F7D017C007F017E00120E667BFF7A1108
:100CCA0079A87D017C007F027E00120E66120FB6A3
:100CDA008F22EF64017028AF0EFEEF7007750E01C8
:100CEA00F50D801BEF64014E7015F50E78267C0019
:100CFA00FDFB7A007910FE7F0712050D120B7AE5CB
:100D0A000E1460080470C6120D1B80C112000E80FA
:010D1A00BC1C
:101159005389F0438901758A18758CFCC28DD28C2C
:07116900D2A9D2AFC2B922E6
:03000B0002107769
:09107700C0E0C0D075D000C00734
:10108000758A18758CFC0509E50970020508C3947A
:10109000F4E50894014012750800750900E50F7029
:0910A000047F0180027F008F0F24
:0710A900D007D0D0D0E032E7
:100EEA00EF24FE60201460331460462403705820F7
:100EFA00B2107F147E001210E020B2037F01227F1D
:100F0A0000227F002220B3107F147E001210E020FE
:100F1A00B3037F01227F00227F002220EB107F147F
:100F2A007E001210E020EB037F01227F00227F0067
:100F3A002220EA107F147E001210E020EA037F01CB
:0A0F4A00227F00227F00227F002298
:100FB600E4F52620B2137F14FE1210E030B2FD7F56
:100FC600147E001210E075260120B3147F147E00F3
:100FD6001210E030B3FD7F147E001210E075260279
:100FE60020EB147F147E001210E030EBFD7F147EA0
:100FF600001210E075260320EA147F147E001210FA
:10100600E030EAFD7F147E001210E0752604AF265C
:0110160022B7
:08000300756E69636F726E00F7
:0D11C1007580FFC2A0D2A1D2A2E58033222A
:1011B1001211C140FBC2A0C2A18F80D2A2C2A22241
:1010B000AB4FAA4EA94DA84CAF47AE46AD45AC4488
:1010C000120662E47B0AFAF9F8120662EB2430FF9A
:1010D0001211C140FBD2A0C2A18F80D2A2C2A22213
:10110F007F381211B17F0C1211B17F061211B17F0E
:10111F00011211B17BFF7A0079037D057C007E00FF
:0D112F00120E667F647E001210E00211DADD
:0511DA007F010211B1CC
:10117000AD07AC06ED1DAE0470011C4E60077F1D6F
:051180001211B180EF27
:011185002247
:10118600AD07AC06ED1DAE0470011C4E60077F185E
:051196001211B180EF11
:01119B002231
:10113C008E83AE03EF640145837005ED247F80033D
:0D114C00ED24BFFF1211B1AF061210D0222A
:060E66008B278A28892970
:100E6C00EF64014E703BF52AF52BAB27AA28A92974
:100E7C00852B82852A831205556062ED247F252BF4
:100E8C00FF1211B1AB27AA28A929852B82852A83A9
:100E9C00120555FF1210D0052BE52B70CD052A80BD
:100EAC00C9E4F52AF52BAB27AA28A929852B82851D
:100EBC002A831205556026ED24BF252BFF1211B194
:100ECC00AB27AA28A929852B82852A83120555FFD1
:0D0EDC001210D0052BE52B70CD052A80C922
:010EE90022E6
:08094F008C428D43AB07AA06A0
:10095700E4754B01F54AF549F548754F01F54EF534
:100967004DF54C755301F552F551F550EB64014ABD
:100977006003020A7CE543247FFF1211B1E47F0A7A
:10098700FEFDFCAB4BAA4AA949A8481205D7A80403
:10099700A905AA06AB07AF47AE46AD45AC4412065C
:1009A70062E4FBFAF9F8C31206F4602EAF4BAE4AC5
:1009B700AD49AC48E47B0AF81205D78F4B8E4A8DB8
:1009C700498C48E5532401F553E43552F552E43593
:1009D70051F551E43550F55080A38553578552564C
:1009E700855155855054E47F01FEFDFCAB57AA564F
:1009F700A955A854C31206F45003020B79E4754BAA
:100A070001F54AF549F548AF57AE56AD55AC54AB6D
:100A17004BAA4AA949A848C31206F45030AF4FAEB3
:100A27004EAD4DAC4CE47B0AFAF9F81205D78F4F5F
:100A37008E4E8D4D8C4CE54B2401F54BE4354AF534
:100A47004AE43549F549E43548F54880BA1210B00B
:100A5700E4754F01F54EF54DF54CE55724FFF55775
:100A6700E55634FFF556E55534FFF555E55434FFA3
:100A7700F5540209EDE54324BFFF1211B1E47F0AE3
:100A8700FEFDFCAB4BAA4AA949A8481205D7A80402
:100A9700A905AA06AB07AF47AE46AD45AC4412065B
:100AA70062E4FBFAF9F8C31206F4602EAF4BAE4AC4
:100AB700AD49AC48E47B0AF81205D78F4B8E4A8DB7
:100AC700498C48E5532401F553E43552F552E43592
:100AD70051F551E43550F55080A38553578552564B
:100AE700855155855054E47F01FEFDFCAB57AA564E
:100AF700A955A854C31206F44078E4754B01F54A8A
:100B0700F549F548AF57AE56AD55AC54AB4BAA4A6D
:100B1700A949A848C31206F45030AF4FAE4EAD4DA9
:100B2700AC4CE47B0AFAF9F81205D78F4F8E4E8D3D
:100B37004D8C4CE54B2401F54BE4354AF54AE43539
:100B470049F549E43548F54880BA1210B0E4754FC5
:100B570001F54EF54DF54CE55724FFF557E55634AD
:100B6700FFF556E55534FFF555E55434FFF55402C6
:020B77000AED85
:010B79002259
:080705008C298D2AAB07AA061E
:10070D00E4753301F532F531F530753701F536F510
:10071D0035F534753B01F53AF539F538EB64014A99
:10072D006003020840E52A247FFF1211B1E47F0A1D
:10073D00FEFDFCAB33AA32A931A8301205D7A804AF
:10074D00A905AA06AB07AF2EAE2DAD2CAC2B12060C
:10075D0062E4FBFAF9F8C31206F4602EAF33AE3241
:10076D00AD31AC30E47B0AF81205D78F338E328D64
:10077D00318C30E53B2401F53BE4353AF53AE4356F
:10078D0039F539E43538F53880A3E4852F3FF53E4A
:10079D00F53DF53CE47F01FEFDFCAB3FAA3EA93DD6
:1007AD00A83CC31206F4500302094EE4753301F55B
:1007BD0032F531F530AF3FAE3EAD3DAC3CAB33AA7B
:1007CD0032A931A830C31206F45030AF37AE36AD72
:1007DD0035AC34E47B0AFAF9F81205D78F378E362B
:1007ED008D358C34E5332401F533E43532F532E4BF
:1007FD003531F531E43530F53080BAAB37AA36A94D
:10080D0035A834AF2EAE2DAD2CAC2B1210C0E47527
:10081D003701F536F535F534E53F24FFF53FE53E77
:10082D0034FFF53EE53D34FFF53DE53C34FFF53C49
:10083D000207A1E52A24BFFF1211B1E47F0AFEFDD4
:10084D00FCAB33AA32A931A8301205D7A804A905EB
:10085D00AA06AB07AF2EAE2DAD2CAC2B120662E463
:10086D00FBFAF9F8C31206F4602EAF33AE32AD3198
:10087D00AC30E47B0AF81205D78F338E328D318C74
:10088D0030E53B2401F53BE4353AF53AE43539F5ED
:10089D0039E43538F53880A3E4852F3FF53EF53D35
:1008AD00F53CE47F01FEFDFCAB3FAA3EA93DA83C13
:1008BD00C31206F4500302094EE4753301F532F507
:1008CD0031F530AF3FAE3EAD3DAC3CAB33AA32A9B6
:1008DD0031A830C31206F45030AF37AE36AD35AC5B
:1008ED0034E47B0AFAF9F81205D78F378E368D3539
:1008FD008C34E5332401F533E43532F532E435310A
:10090D00F531E43530F53080BAAB37AA36A935A8C4
:10091D0034AF2EAE2DAD2CAC2B1210C0E4753701BB
:10092D00F536F535F534E53F24FFF53FE53E34FF6B
:10093D00F53EE53D34FFF53DE53C34FFF53C020861
:01094D00AFFA
:01094E002286
:1010E000D3EF9400EE940040257DC7EDD3940074B7
:1010F00080948040127C01ECD394007480948040F2
:0E110000031C80F31D80E4EF1F70D51E80D20B
:01110E0022BE
:0111E40022E8
:0511DF00C2A7C2A52219
:040F54008F2DA9052F
:100F5800E4FBFAD2A7AF037E007401A80708800556
:100F6800C333CE33CED8F9FFEF552D24FF92A6D246
:100F7800A5C2A50BBB00010AEB64084A70D7E4FAC6
:100F8800FBAF037E007401A807088005C333CE3386
:100F9800CED8F9FFE9FDEF5D24FF92A6D2A5C2A540
:0D0FA8000BBB00010AEB64084A70D6C2A71B
:010FB5002219
:02101700AD0723
:10101900E4FBF9D2A7430501EBC3940874809480DB
:1010290050227E007401A803088005C333CE33CE55
:10103900D8F9FFEDF582EF558224FF92A6C2A5D219
:10104900A50B80D4E4FBEBC39408748094805017FB
:10105900D2A5C2A530A60DA8037401088002C33326
:0D106900D8FC42010B80DFC2A7C2A6AF0178
:011076002257
:100B7A00E4FD7F8E120F54E52675F00A120533C480
:100B8A0054F0FFE52675F00A120533AEF0EF2EFD9C
:100B9A007F8C120F54E52775F00A120533C454F0FE
:100BAA00FFE52775F00A120533AEF0EF2EFD7F88B8
:100BBA00120F54E52875F00A120533C454F0FFE504
:100BCA002875F00A120533AEF0EF2EFD7F86120F5C
:100BDA0054E52975F00A120533C454F0FFE5297566
:100BEA00F00A120533AEF0EF2EFD7F84120F54E5A2
:100BFA002A75F00A120533C454F0FFE52A75F00A83
:100C0A00120533AEF0EF2EFD7F82120F54E52B75DD
:100C1A00F00A120533C454F0FFE52B75F00A1205E9
:100C2A0033AEF0EF2EFD7F80120F54E52C75F00ADB
:100C3A00120533C454F0FFE52C75F00A120533AEE1
:100C4A00F0EF2EFD7F8A120F547D807F8E020F54A3
:100DD3007F8D121017EFC4540F75F00AA4FEEF5461
:100DE3000F2EF5267F89121017EFC4540F75F00AE2
:100DF300A4FEEF540F2EF5277F87121017EFC4546C
:100E03000F75F00AA4FEEF540F2EF5287F851210FC
:100E130017EFC4540F75F00AA4FEEF540F2EF529F3
:100E23007F83121017EFC4540F75F00AA4FEEF541A
:100E33000F2EF52A7F81121017EFC4540F75F00A95
:100E4300A4FEEF540F2EF52B7F8B121017EFC45413
:100E53000F75F00AA4FEEF540F2EF52C7B007A00D9
:020E63007926EE
:010E6500226A
:030000000211CE1C
:0C11CE00787FE4F6D8FD758157020C5ABA
:10043D00E709F608DFFA8046E709F208DFFA803EA1
:10044D0088828C83E709F0A3DFFA8032E309F6088E
:10045D00DFFA8078E309F208DFFA807088828C83F6
:10046D00E309F0A3DFFA806489828A83E0A3F608AA
:10047D00DFFA805889828A83E0A3F208DFFA804C84
:10048D0080D280FA80C680D4806980F2803380105B
:10049D0080A680EA809A80A880DA80E280CA8033C4
:1004AD0089828A83ECFAE493A3C8C582C8CCC5833C
:1004BD00CCF0A3C8C582C8CCC583CCDFE9DEE7800C
:1004CD000D89828A83E493A3F608DFF9ECFAA9F08B
:1004DD00EDFB2289828A83ECFAE0A3C8C582C8CCE1
:1004ED00C583CCF0A3C8C582C8CCC583CCDFEADEFA
:1004FD00E880DB89828A83E493A3F208DFF980CC5C
:10050D0088F0EF60010E4E60C388F0ED2402B40454
:10051D000050B9F582EB2402B4040050AF232345FB
:06052D00822390048D738F
:10053300C2D530F707B2D563F0FF05F030E70CB250
:10054300D5F4048463F0FF05F080018430D502F410
:02055300042280
:10055500BB010CE58229F582E5833AF583E022505B
:1005650006E92582F8E622BBFE06E92582F8E222A5
:0D057500E58229F582E5833AF583E49322BF
:10058200BB010FF8E58229F582E5833AF583E0287D
:10059200F0225009C58229F8E58226F622BBFE091F
:1005A200C58229F8E22582F222F8EA2583F583E959
:0305B20093282269
:1005B500F8BB010DE58229F582E5833AF583E8F07C
:1005C500225006E92582C8F622BBFE05E92582C828
:0205D500F22210
:1005D700E88FF0A4CC8BF0A42CFCE98EF0A42CFCC3
:1005E7008AF0EDA42CFCEA8EF0A4CDA8F08BF0A441
:1005F7002DCC3825F0FDE98FF0A42CCD35F0FCEBA0
:100607008EF0A4FEA9F0EB8FF0A4CFC5F02ECD3964
:0F061700FEE43CFCEAA42DCE35F0FDE43CFC22D1
:1006260075F008758200EF2FFFEE33FECD33CDCC8B
:1006360033CCC58233C5829BED9AEC99E58298400E
:100646000CF582EE9BFEED9AFDEC99FC0FD5F0D6EB
:10065600E4CEFBE4CDFAE4CCF9A88222B800C1B915
:100666000059BA002DEC8BF084CFCECDFCE5F0CB53
:10067600F97818EF2FFFEE33FEED33FDEC33FCEB8C
:1006860033FB10D703994004EB99FB0FD8E5E4F947
:10069600FA227818EF2FFFEE33FEED33FDEC33FC34
:1006A600C933C910D7059BE99A4007EC9BFCE99A28
:1006B600F90FD8E0E4C9FAE4CCFB2275F010EF2F6D
:1006C600FFEE33FEED33FDCC33CCC833C810D7076D
:1006D6009BEC9AE899400AED9BFDEC9AFCE899F8A8
:0E06E6000FD5F0DAE4CDFBE4CCFAE4C8F9223B
:1006F400EB9FF5F0EA9E42F0E99D42F0E89C45F05C
:0107040022D2
:00000001FF
