:03000000020925CD
:0C092500787FE4F6D8FD758120020843BD
:1008960031313233343536373839202020002020A4
:0F08A600204142434445464748494A202020000C
:0E08E300C2A1C2A21208F18F801208F1D2A2A7
:0608F100000000000022DF
:1008CE00C200C2A0D2A1D2A21208F1E580339200DA
:0408DE00C2A2A20010
:0108E20022F3
:0D090B001208CE40FBC2A01208E3C2A222D7
:0D0918001208CE40FBD2A01208E3C2A222BA
:1008F7007F3812090B7F0C12090B7F0612090B7F39
:040907000102090BD5
:02087100AC07D2
:10087300ECF582758300640170027E80E582640278
:10088300458370027EC0EE2D14FEFF12090BAF03E9
:030893000209183F
:040800008F088D09C7
:10080400E4FDEFF582758300640170027E80E58269
:100814006402458370027EC0E5092E14FEAF060E05
:1008240012090B0D1208B56015ED64106010120862
:0E083400B5FF120918740129F9E43AFA80DFC1
:010842002293
:100843001208F77BFF7A0879967D017F0112080071
:100853007A0879A47D017F021208007B4F7D0F7F08
:0E086300021208717B4B0D7F0212087180FE9D
:1008B500BB010689828A83E0225002E722BBFE0241
:0908C500E32289828A83E4932274
:00000001FF
